:020000040800F2
:10000000A8070020D5010008B3050008AB050008CB
:10001000AF0500088F04000865100008000000000C
:100020000000000000000000000000007D07000844
:10003000930400080000000025060008910800084D
:10004000EF010008EF010008EF010008EF010008D0
:10005000EF010008EF010008EF010008EF010008C0
:10006000EF010008EF010008EF010008EF010008B0
:10007000EF010008EF010008EF010008EF010008A0
:10008000EF010008EF010008EF010008EF01000890
:10009000EF010008EF010008EF010008EF01000880
:1000A000EF010008EF010008EF010008EF01000870
:1000B000EF010008EF010008EF010008EF01000860
:1000C000EF010008EF010008EF010008EF01000850
:1000D000EF01000865090008150A0008C90A0008B0
:1000E000EF010008EF010008EF010008EF01000830
:1000F000EF010008EF010008EF010008EF01000820
:10010000EF010008EF010008EF010008EF0100080F
:10011000F508000831090008EF010008EF010008A8
:10012000EF010008EF010008EF010008EF010008EF
:1001300000F002F800F03FF80AA090E8000C8244BA
:100140008344AAF10107DA4501D100F034F8AFF297
:10015000090EBAE80F0013F0010F18BFFB1A43F0A5
:1001600001031847E010000000110000103A24BFFE
:1001700078C878C1FAD8520724BF30C830C144BF0C
:1001800004680C607047000000230024002500264E
:10019000103A28BF78C1FBD8520728BF30C148BFEA
:1001A0000B607047642900F07580002070471FB510
:1001B0001FBD10B510BD00F033F91146FFF7F7FF72
:1001C00000F0B2FF00F051F903B4FFF7F2FF03BCF7
:1001D00000F056F90948804709480047FEE7FEE766
:1001E000FEE7FEE7FEE7FEE7FEE7FEE7FEE7FEE7E7
:1001F00004480549054A064B704700009508000869
:1002000031010008A8010020A8070020A803002051
:10021000A80300200FB4044910B503AA029800F007
:10022000D1F810BC5DF814FB0C0000202DE9F04162
:100230000E460446002020622046E168884730B31D
:10024000252805D0D4E901219047206A401CF2E717
:10025000E168204600278847050018D0A5F1410035
:10026000192802D820354FF4006732462946204627
:100270002760FFF797FF40B1012804D0F61D26F054
:1002800007060836D8E7361DD6E72846DAE7206A9B
:10029000BDE8F0812DE9F04106460024106875297B
:1002A000314616A510D0AFF30080002802DA404294
:1002B00013A507E031688A0701D512A502E04907B6
:1002C00004D511A5012401E0AFF3008000210A222A
:1002D00006F1240709E0B0FBF2FCB0FBF2F302FBED
:1002E0001C00303078541846491C0028F3D12346AE
:1002F0002A463046BDE8F04100F00BB8000000008F
:100300002D0000002B000000200000007047704707
:1003100070472DE9F0470D4699469246044600F194
:1003200024080168880604D5E06921F010012160E5
:1003300000E00120A84201DD471B00E00027A16981
:100340007A1902EB0900081AA0612078C00602D4CD
:100350002046AFF30080002608E0D4E901211AF816
:1003600006009047206A401C761C20624E45F4DB54
:100370002078C0060AD52046AFF3008006E0D4E915
:10038000012130209047206A401C2062381EA7F1CE
:100390000107F4DC07E0D4E9012118F805009047D3
:1003A000206A401C2062281EA5F10105F3DC2046CE
:1003B000AFF300802078000602D50220BDE8F08768
:1003C0000120FBE7074B70B50D467B4400F011F8A8
:1003D0000446284600F020F810B14FF0FF3070BD01
:1003E000204670BD2B0D000001694A1C026108788F
:1003F000704700B58FB0CDE9013100210591054965
:100400007944CDE9031011466846FFF70FFF0FB09E
:1004100000BD0000E5FFFFFF007B00F0800070479B
:10042000754600F029F8AE4605006946534620F0AF
:100430000700854618B020B5FFF7DAFEBDE820407A
:100440004FF000064FF000074FF000084FF0000B90
:1004500021F00701AC46ACE8C009ACE8C009ACE843
:10046000C009ACE8C0098D4670470446AFF3008070
:100470002046FFF7A9FE0000004870474801002011
:1004800001491820ABBEFEE726000200704700BFFE
:10049000FEE770472DE9F0410246002500260020C6
:1004A00000230024002791F803C00CF00F0591F8F9
:1004B00003C00CF0100CBCF1000F03D091F802C087
:1004C0004CEA050591F800C0BCF1000F31D014686A
:1004D00000202BE04FF0010C0CFA00F3B1F800C043
:1004E0000CEA03069E4220D183004FF00F0C0CFA59
:1004F00003F7BC4305FA03FC4CEA040491F803C07B
:10050000BCF1280F06D14FF0010C0CFA00FCC2F828
:1005100014C00AE091F803C0BCF1480F05D14FF0B8
:10052000010C0CFA00FCC2F810C0401C0828D1D302
:100530001460B1F800C0BCF1FF0F34DD5468002036
:100540002EE000F1080C4FF0010808FA0CF3B1F8A6
:1005500000C00CEA03069E4221D183004FF00F0C2D
:100560000CFA03F7BC4305FA03FC4CEA040491F8C7
:1005700003C0BCF1280F05D100F1080C08FA0CF8F3
:10058000C2F8148091F803C0BCF1480F07D100F104
:10059000080C4FF0010808FA0CF8C2F81080401C53
:1005A0000828CED35460BDE8F08100BFFEE700BF4D
:1005B000FEE7704770B5002100230F22C47804B312
:1005C000154C246804F4E064C4F5E064210AC1F128
:1005D0000403CA40447804FA03F1847814402143A8
:1005E00009010E4C0678A155047804F01F0501247A
:1005F000AC4005786D11AD0005F1E025C5F800416E
:1006000009E0047804F01F050124AC40044D06788D
:10061000761145F8264070BD0CED00E000E400E0E6
:1006200080E100E07047000029B1064AD269024328
:10063000044BDA6104E0034AD2698243014BDA6178
:10064000704700000010024029B1064A12690243B7
:10065000044B1A6104E0034A12698243014B1A6198
:10066000704700000010024029B1064A9269024317
:10067000044B9A6104E0034A92698243014B9A61F8
:10068000704700000010024029B1064AD2680243B8
:10069000044BDA6004E0034AD2688243014BDA601B
:1006A000704700000010024030B5002100220024F5
:1006B00000232D4D6D6805F00C0121B1042905D0F2
:1006C000082923D105E0294D056022E0274D05606A
:1006D0001FE0254D6D6805F47012234D6D6805F41B
:1006E0008034022505EB92421CB9214D554305602B
:1006F0000BE01D4D6D6805F400351DB11C4D5543D3
:10070000056002E0194D5543056002E0174D056094
:1007100000BF00BF144D6D6805F0F0010909154DCB
:100720006B5C0568DD4045600F4D6D6805F4E06168
:10073000090A104D6B5C4568DD4085600A4D6D68A7
:1007400005F46051C90A0B4D6B5C4568DD40C5601E
:10075000054D6D6805F44041890B074D6B5CC5681C
:10076000B5FBF3F5056130BD0010024000127A00C0
:1007700000093D005C0000206C000020704710B5AF
:1007800000F002F810BD00000CB5002001900090B0
:100790003348006840F480303149086000BF304879
:1007A000006800F4003000900198401C019000980F
:1007B00018B90198B0F5A06FF1D12948006800F48C
:1007C000003010B10120009001E00020009000985E
:1007D000012843D12348006840F0100021490860F7
:1007E0000846006820F0030008600846006840F0F2
:1007F000020008601A484068194948600846406885
:1008000048600846406840F4806048600846406898
:1008100020F47C1048600846406840F4E8104860C6
:100820000846006840F08070086000BF0C4800680F
:1008300000F000700028F9D00948406820F003005B
:10084000074948600846406840F00200486000BF21
:100850000348406800F00C000828F9D10CBD0000E6
:100860000010024000200240042808D14FF0E0218F
:10087000096941F004014FF0E022116107E04FF0F7
:10088000E021096921F004014FF0E0221161704775
:100890007047000010B51348006840F0010011498E
:1008A000086008464068104908400E4948600846FC
:1008B00000680E4908400B4908600846006820F4AB
:1008C000802008600846406820F4FE0048604FF42D
:1008D0001F008860FFF753FF4FF000600449086075
:1008E00010BD0000001002400000FFF8FFFFF6FE00
:1008F00008ED00E010B540F22551064800F0C9F9B6
:1009000030B10448001D0088C1B2034800F050FA1D
:1009100010BD0000004C00403400002010B504461B
:100920000121C804FFF780FE072C00D000BF10BDD6
:1009300010B540F22551054800F0ABF928B1034845
:100940008088C1B2024800F033FA10BD0050004068
:100950004000002010B5044601210805FFF764FEA1
:1009600010BD000010B540F22551064800F091F985
:1009700030B10448001D0088C1B2034800F018FAE5
:1009800010BD0000003801401000002010B50446E2
:10099000E4B901210520FFF767FE01218803FFF775
:1009A00063FE4FF40070184908801820C8700320B7
:1009B00088701648FFF76EFD4FF48060124908807A
:1009C0000420C8701148FFF765FD1BE0012C19D108
:1009D00001210820FFF748FE01218803FFF744FEAC
:1009E0004020094908801820C870032088700848F2
:1009F000FFF750FD8020044908800420C870044897
:100A0000FFF748FD10BD000058000020000801401D
:100A1000000C014010B540F22551064800F039F9AC
:100A200030B10448001D0088C1B2034800F0C0F98D
:100A300010BD0000004400401C00002010B504461A
:100A400001214804FFF7F0FD022C1AD101210420F6
:100A5000FFF70AFE01214804FFF7E6FD04201749CD
:100A600008801820C870032088701548FFF712FD11
:100A70000820124908800420C8701148FFF70AFDB9
:100A80001BE0032C19D101212020FFF7EDFD0121EE
:100A90004804FFF7C9FD2020084908801820C870C5
:100AA000032088700748FFF7F5FC402003490880C1
:100AB0000420C8700348FFF7EDFC10BD580000206B
:100AC000000801400014014010B540F225510648CD
:100AD00000F0DFF830B10448001D0088C1B20348BF
:100AE00000F066F910BD000000480040280000201A
:100AF00010B5044601218804FFF796FD042C1AD195
:100B000001210820FFF7B0FD01218804FFF7ACFDAB
:100B10002002284908801820C870032088702648C1
:100B2000FFF7B8FC6002234908800420C8702248FF
:100B3000FFF7B0FC3CE0052C1CD101211020FFF791
:100B400093FD01218804FFF78FFD4FF48060194960
:100B500008801820C870032088701848FFF79AFC96
:100B60004FF40060134908800420C8701348FFF751
:100B700091FC1DE0062C1BD101212020FFF774FD04
:100B800001218804FFF770FD4FF480700949088047
:100B90001820C870032088700948FFF77BFC4FF4C9
:100BA0000070044908800420C8700548FFF772FCF3
:100BB00010BD000058000020000C01400010014052
:100BC0000014014021B1828942F40052828104E084
:100BD00082894DF6FF731A408281704710B5044632
:100BE0002048844209D101218803FFF74DFD0021EF
:100BF0004FF48040FFF748FD32E01B48844209D1A2
:100C000001214804FFF720FD00214FF40030FFF7D9
:100C10001BFD25E01548844209D101218804FFF716
:100C200013FD00214FF48020FFF70EFD18E010485F
:100C3000844209D10121C804FFF706FD00214FF4C9
:100C40000020FFF701FD0BE00A48844208D1012192
:100C50000805FFF7F9FC00214FF48010FFF7F4FCC2
:100C600010BD000000380140004400400048004032
:100C7000004C00400050004002460020B1F5007FCB
:100C800000D100BF13880B400BB1012000E0002011
:100C9000704770B50246002400230025002040F66E
:100CA0006A16B14200D100BFC1F3421501F01F0323
:100CB000012606FA03F3012D02D19689334006E09E
:100CC000022D02D1168A334001E0968A33400C127D
:100CD000012606FA04F41688344013B10CB1012041
:100CE00000E0002070BD30B504460025204600F02D
:100CF00035F80346D88800280EDD5889998888423F
:100D000001D1002058815989186845565889401CDE
:100D10005881D888401ED880E8B230BD01460A4AC2
:100D2000914200D10020094A914200D10120084A95
:100D3000914200D10220074A914200D10420064A84
:100D4000914200D105207047003801400044004026
:100D500000480040004C00400050004001460A4A54
:100D6000914200D109480A4A914200D109480A4AF1
:100D7000914200D109480A4A914200D109480A4AE1
:100D8000914200D10948704700380140100000200E
:100D9000004400401C0000200048004028000020C3
:100DA000004C004034000020005000404000002073
:100DB00010B5C28883889A420FDA028983889A42E2
:100DC00001D1002202814AB2048903681A550289BE
:100DD000521C0281C288521CC28010BDF0B503466D
:100DE000002400260025002040F66A17B94200D1F1
:100DF00000BF1846C1F3421401F01F06012707FA8D
:100E000006F5012C01D10C3004E0022C01D1103088
:100E100000E014301AB107682F43076002E007684A
:100E2000AF430760F0BD00002DE9F04786B00546EE
:100E30000E460024A24600BFA1460027B08900B19B
:100E400000BF2F462C8A4CF6FF700440F088044304
:100E50002C82AC894EF6F3100440B08831890843E7
:100E6000718908430443AC81AC8A4FF6FF400440CB
:100E7000B0890443AC8201A8FFF716FC1F488742E3
:100E800002D1DDF810A001E0DDF80CA0A88900F483
:100E9000004040B10AEBCA0000EB0A10316849007B
:100EA000B0FBF1F807E00AEBCA0000EB0A1031686A
:100EB0008900B0FBF1F86420B8FBF0F004012009D0
:100EC000642101FB1089A88900F4004040B1322060
:100ED00000EBC900B0FBF1F000F00700044308E0AC
:100EE000322000EB09106421B0FBF1F000F00F009C
:100EF00004432C8106B0BDE8F087000000380140B3
:100F000013B5044600BF80212046FFF7B5FE002838
:100F1000F9D09DF80400A0801CBD000070B586B01B
:100F200004460D46164602964948844212D1284688
:100F3000FFF72CFD25208DF804000020ADF81400EB
:100F40000C20ADF812000020ADF81000ADF80E0036
:100F5000ADF80C003F48844212D12846FFF76EFDE1
:100F600026208DF804000020ADF814000C20ADF808
:100F700012000020ADF81000ADF80E00ADF80C0026
:100F80003548844212D12846FFF7B2FD27208DF85C
:100F900004000020ADF814000C20ADF81200002071
:100FA000ADF81000ADF80E00ADF80C002B488442EF
:100FB00012D12846FFF7B2FC34208DF8040000203F
:100FC000ADF814000C20ADF812000020ADF81000B0
:100FD000ADF80E00ADF80C002148844212D128462D
:100FE000FFF7B8FC35208DF804000020ADF81400A0
:100FF0000C20ADF812000020ADF81000ADF80E0086
:10100000ADF80C0000212046FFF7DCFD2046FFF77D
:10101000E5FD02A92046FFF707FF01212046FFF763
:10102000D1FD012240F225512046FFF7D7FE0120D5
:101030008DF8070000208DF805002046FFF76EFEB2
:101040008DF8060001A8FFF7B5FA06B070BD0000E4
:10105000003801400044004000480040004C00407F
:101060000050004000BFFEE710B56FF00400FFF72E
:10107000FBFB0A4800680A49B0FBF1F00949087017
:101080000846007800EB4001C1EBC0104FF6FF713D
:1010900001EAC0000449088010BD0000740000206F
:1010A00000127A0006000020080000200146114AC4
:1010B00012884A434FF0E0235A6100229A611A468F
:1010C000126942F001021A6100BF4FF0E02210697C
:1010D00000F001021AB100F48032002AF5D04FF07E
:1010E000E022126922F001024FF0E0231A6100228F
:1010F0009A6170470800002070B504460D46E1B2C1
:101100000248FFF7FDFE204670BD0000004400408D
:1011100070B504460D464FF4E13229462046FFF7EC
:10112000FDFE00F049F870BDFFF79EFF4FF4E1327D
:1011300002211B48FFF7F2FE00211A48FFF7E8FFE3
:1011400001211020FFF790FA4FF440101649486033
:10115000481448616420FFF7A9FF4FF4005012497A
:1011600008616420FFF7A2FF18E00E4800F032F893
:101170000E48B0F900100EA0FFF74CF84FF44010E5
:1011800009494860481448616420FFF78FFF4FF415
:101190000050054908616420FFF788FFE5E700007B
:1011A000004400400038014000100140720000205F
:1011B00025640D0A0000000010B5044801780448B9
:1011C000FFF79EFE0520FFF771FF10BD0000002015
:1011D0000038014010B504461548844226D1154810
:1011E00081782046FFF78CFE0120FFF75FFF204645
:1011F000FFF779FD104908700120FFF757FF2046DF
:10120000FFF771FD0D490870084600780A49097812
:1012100040EA012000F5E16000B20A2190FBF1F004
:1012200000B2074908800120FFF740FF10BD000011
:1012300000380140000000207100002070000020F4
:1012400072000020641200080000002088000000E6
:101250006C010008EC120008880000202007000044
:1012600088010008616379727000000000000000CE
:1012700000000000880000202000000000000000A6
:10128000A80000202000000000000000C80000208E
:101290002000000000000000E80000202000000006
:1012A00000000000080100202000000000000000F5
:1012B00028010020200000000000000000000000C5
:1012C00000000000010203040102030406070809EC
:1012D000020406080000000000A24A04000000000A
:0C12E000000000000102030406070809DA
:0400000508000131BD
:00000001FF
