:020000040800F2
:1000000020070020D5010008F9060008F1060008C5
:10001000F50600088F040008BD1500080000000068
:10002000000000000000000000000000C5080008FB
:1000300093040008000000006D070008D9090008BB
:10004000EF010008EF010008EF010008EF010008D0
:10005000EF010008EF010008EF010008EF010008C0
:10006000EF010008EF010008EF010008EF010008B0
:10007000EF010008EF010008EF010008EF010008A0
:10008000EF010008EF010008EF010008EF01000890
:10009000EF010008EF010008EF010008EF01000880
:1000A000EF010008EF010008EF010008EF01000870
:1000B000EF010008EF010008EF010008EF01000860
:1000C000EF010008EF010008EF010008EF01000850
:1000D000EF010008BD0F00086D1000082111000895
:1000E000EF010008EF010008EF010008EF01000830
:1000F000EF010008EF010008EF010008EF01000820
:10010000EF010008EF010008EF010008EF0100080F
:10011000EF010008EF010008EF010008EF010008FF
:10012000EF010008EF010008EF010008EF010008EF
:1001300000F002F800F03FF80AA090E8000C8244BA
:100140008344AAF10107DA4501D100F034F8AFF297
:10015000090EBAE80F0013F0010F18BFFB1A43F0A5
:1001600001031847D4210000F4210000103A24BFF5
:1001700078C878C1FAD8520724BF30C830C144BF0C
:1001800004680C607047000000230024002500264E
:10019000103A28BF78C1FBD8520728BF30C148BFEA
:1001A0000B607047642900F07580002070471FB510
:1001B0001FBD10B510BD00F033F91146FFF7F7FF72
:1001C00001F072FA00F051F903B4FFF7F2FF03BC3B
:1001D00000F056F90948804709480047FEE7FEE766
:1001E000FEE7FEE7FEE7FEE7FEE7FEE7FEE7FEE7E7
:1001F00004480549054A064B70470000DD09000820
:1002000031010008200100202007002020030020E9
:10021000200300200FB4044910B503AA029800F08F
:10022000D1F810BC5DF814FB040000202DE9F0416A
:100230000E460446002020622046E168884730B31D
:10024000252805D0D4E901219047206A401CF2E717
:10025000E168204600278847050018D0A5F1410035
:10026000192802D820354FF4006732462946204627
:100270002760FFF797FF40B1012804D0F61D26F054
:1002800007060836D8E7361DD6E72846DAE7206A9B
:10029000BDE8F0812DE9F04106460024106875297B
:1002A000314616A510D0AFF30080002802DA404294
:1002B00013A507E031688A0701D512A502E04907B6
:1002C00004D511A5012401E0AFF3008000210A222A
:1002D00006F1240709E0B0FBF2FCB0FBF2F302FBED
:1002E0001C00303078541846491C0028F3D12346AE
:1002F0002A463046BDE8F04100F00BB8000000008F
:100300002D0000002B000000200000007047704707
:1003100070472DE9F0470D4699469246044600F194
:1003200024080168880604D5E06921F010012160E5
:1003300000E00120A84201DD471B00E00027A16981
:100340007A1902EB0900081AA0612078C00602D4CD
:100350002046AFF30080002608E0D4E901211AF816
:1003600006009047206A401C761C20624E45F4DB54
:100370002078C0060AD52046AFF3008006E0D4E915
:10038000012130209047206A401C2062381EA7F1CE
:100390000107F4DC07E0D4E9012118F805009047D3
:1003A000206A401C2062281EA5F10105F3DC2046CE
:1003B000AFF300802078000602D50220BDE8F08768
:1003C0000120FBE7074B70B50D467B4400F011F8A8
:1003D0000446284600F020F810B14FF0FF3070BD01
:1003E000204670BD8312000001694A1C0261087832
:1003F000704700B58FB0CDE9013100210591054965
:100400007944CDE9031011466846FFF70FFF0FB09E
:1004100000BD0000E5FFFFFF007B00F0800070479B
:10042000754600F029F8AE4605006946534620F0AF
:100430000700854618B020B5FFF7DAFEBDE820407A
:100440004FF000064FF000074FF000084FF0000B90
:1004500021F00701AC46ACE8C009ACE8C009ACE843
:10046000C009ACE8C0098D4670470446AFF3008070
:100470002046FFF7A9FE000000487047BC0000209E
:1004800001491820ABBEFEE726000200704700BFFE
:10049000FEE770472DE9F0410246002500260020C6
:1004A00000230024002791F803C00CF00F0591F8F9
:1004B00003C00CF0100CBCF1000F03D091F802C087
:1004C0004CEA050591F800C0BCF1000F31D014686A
:1004D00000202BE04FF0010C0CFA00F3B1F800C043
:1004E0000CEA03069E4220D183004FF00F0C0CFA59
:1004F00003F7BC4305FA03FC4CEA040491F803C07B
:10050000BCF1280F06D14FF0010C0CFA00FCC2F828
:1005100014C00AE091F803C0BCF1480F05D14FF0B8
:10052000010C0CFA00FCC2F810C0401C0828D1D302
:100530001460B1F800C0BCF1FF0F34DD5468002036
:100540002EE000F1080C4FF0010808FA0CF3B1F8A6
:1005500000C00CEA03069E4221D183004FF00F0C2D
:100560000CFA03F7BC4305FA03FC4CEA040491F8C7
:1005700003C0BCF1280F05D100F1080C08FA0CF8F3
:10058000C2F8148091F803C0BCF1480F07D100F104
:10059000080C4FF0010808FA0CF8C2F81080401C53
:1005A0000828CED35460BDE8F08100002DE9F04763
:1005B00000201949088001211748243800F0CDFA9D
:1005C00000BF01211448243800F0DCFB0028F8D0DB
:1005D00000211148243800F0C0FA01210E482438C7
:1005E00000F0B8FA0C48243800F0C9FB81460A48EC
:1005F000243800F0C1FBA9EB0004204601F007F904
:100600000546064A064B01F019F9074601F0D2F8F3
:1006100080B2BDE8F0870000240400400E2DB29D9A
:10062000EFA7C63F10B590B00121042000F0C0F83C
:100630000121082000F0BCF80121022000F098F808
:1006400001F012F80BA800F0D3F827490B98B0FB83
:10065000F1F0401E84B2254800F09AFAADF820402F
:100660000020ADF822004FF6FF70ADF82400002006
:10067000ADF8260008A91D4800F04EFC04A800F0C3
:10068000DBFB6020ADF810000120ADF812000F2058
:10069000ADF816000020ADF8180004A9134800F0CA
:1006A0007BFB0020ADF80400ADF806000120ADF89A
:1006B00008000020ADF80A00ADF80C0001A90B48B5
:1006C00000F0C4FB5021094800F0FEFB80210748E0
:1006D00000F003FC0121054800F04BFA012103481A
:1006E00000F038FA10B010BD40420F000004004086
:1006F00000BFFEE700BFFEE77047000070B50021B5
:1007000000230F22C47804B3154C246804F4E06479
:10071000C4F5E064210AC1F10403CA40447804FA34
:1007200003F184781440214309010E4C0678A15549
:10073000047804F01F050124AC4005786D11AD006C
:1007400005F1E025C5F8004109E0047804F01F0533
:100750000124AC40044D0678761145F8264070BD62
:100760000CED00E000E400E080E100E070470000F4
:1007700029B1064AD2690243044BDA6104E0034A14
:10078000D2698243014BDA617047000000100240D9
:1007900029B1064A12690243044B1A6104E0034A74
:1007A00012698243014B1A61704700000010024039
:1007B00029B1064A92690243044B9A6104E0034A54
:1007C00092698243014B9A61704700000010024019
:1007D00029B1064AD2680243044BDA6004E0034AB6
:1007E000D2688243014BDA6070470000001002407B
:1007F00030B500210022002400232D4D6D6805F046
:100800000C0121B1042905D0082923D105E0294D87
:10081000056022E0274D05601FE0254D6D6805F459
:100820007012234D6D6805F48034022505EB924269
:100830001CB9214D554305600BE01D4D6D6805F455
:1008400000351DB11C4D5543056002E0194D55435F
:10085000056002E0174D056000BF00BF144D6D68D4
:1008600005F0F0010909154D6B5C0568DD40456038
:100870000F4D6D6805F4E061090A104D6B5C456829
:10088000DD4085600A4D6D6805F46051C90A0B4D65
:100890006B5C4568DD40C560054D6D6805F4404101
:1008A000890B074D6B5CC568B5FBF3F5056130BD81
:1008B0000010024000127A0000093D0030000020C4
:1008C00040000020704710B500F002F810BD000095
:1008D0000CB50020019000903348006840F480304F
:1008E0003149086000BF3048006800F400300090D3
:1008F0000198401C0190009818B90198B0F5A06FBC
:10090000F1D12948006800F4003010B101200090B6
:1009100001E0002000900098012843D1234800689E
:1009200040F01000214908600846006820F00300EC
:1009300008600846006840F0020008601A484068F5
:10094000194948600846406848600846406840F4D5
:10095000806048600846406820F47C104860084683
:10096000406840F4E81048600846006840F0807035
:10097000086000BF0C48006800F000700028F9D043
:100980000948406820F0030007494860084640686D
:1009900040F00200486000BF0348406800F00C00CF
:1009A0000828F9D10CBD00000010024000200240D0
:1009B000042808D14FF0E021096941F004014FF00B
:1009C000E022116107E04FF0E021096921F0040104
:1009D0004FF0E022116170477047000010B51348D6
:1009E000006840F00100114908600846406810495D
:1009F00008400E494860084600680E4908400B4907
:100A000008600846006820F48020086008464068B6
:100A100020F4FE0048604FF41F008860FFF753FF8A
:100A20004FF000600449086010BD00000010024053
:100A30000000FFF8FFFFF6FE08ED00E0F0B50C4601
:100A4000154600220021068C4FF6FE773E400684B4
:100A5000028B018C4FF60C7632407E1C06EA0316A0
:100A60002E433243104EB0420ED0104EB0420BD047
:100A7000B0F1804F08D00E4EB04205D00D4EB042BE
:100A800002D00D4EB04206D14FF6FD76314044F013
:100A90000106314305E04FF6F576314044F001069A
:100AA000314302830184F0BD002C01400034014039
:100AB0000004004000080040000C0040F0B50C4667
:100AC0001546002200210026078C4FF6EF7C07EA2E
:100AD0000C070784028B018C4FF6FF7707EA041698
:100AE00040F6FF473A404FF6FF7707EA03373A43AD
:100AF0004FF6FF7707EA05273A43114FB8420ED069
:100B0000104FB8420BD0B0F1804F08D00E4FB84212
:100B100005D00E4FB84202D00D4FB84206D14FF665
:100B2000DF77394046F01007394305E04FF65F772D
:100B3000394044F01007394302830184F0BD0000BE
:100B4000002C014000340140000400400008004037
:100B5000000C0040CA430282704721B1028842F073
:100B60000102028004E002884FF6FE731A40028000
:100B7000704731B1B0F8442042F40042A0F844205C
:100B800005E0B0F84420C2F30E02A0F844207047FC
:100B900010B504466848844208D10121C014FFF70B
:100BA00017FE0021E014FFF713FEC4E0B4F1804FFC
:100BB00008D101210846FFF7EBFD00210120FFF7D6
:100BC000E7FDB8E05D48844208D101210220FFF72B
:100BD000DFFD00210220FFF7DBFDACE05848844236
:100BE00008D101210420FFF7D3FD00210420FFF7E5
:100BF000CFFDA0E05348844208D101210820FFF72F
:100C0000C7FD00210820FFF7C3FD94E04E48844251
:100C100008D101211020FFF7BBFD00211020FFF7B4
:100C2000B7FD88E04948844208D101212020FFF720
:100C3000AFFD00212020FFF7ABFD7CE0444884425B
:100C400008D101214014FFF7C3FD00216014FFF714
:100C5000BFFD70E03F48844209D10121C804FFF77D
:100C6000B7FD00214FF40020FFF7B2FD63E03A48E2
:100C7000844209D101210805FFF7AAFD00214FF4A4
:100C80008010FFF7A5FD56E03448844209D10121C8
:100C90004805FFF79DFD00214FF40010FFF798FD78
:100CA00049E02F48844208D101214020FFF770FD20
:100CB00000214020FFF76CFD3DE02A48844208D126
:100CC00001218020FFF764FD00218020FFF760FDF7
:100CD00031E02548844208D101218015FFF758FDF5
:100CE0000021A015FFF754FD25E02048844209D1DA
:100CF00001210804FFF76CFD00214FF48030FFF75D
:100D000067FD18E01A48844209D101214804FFF721
:100D10005FFD00214FF40030FFF75AFD0BE015484E
:100D2000844208D101218804FFF752FD00214FF4CD
:100D30008020FFF74DFD10BD002C01400004004055
:100D400000080040000C004000100040001400406B
:100D500000340140004C014000500140005401406B
:100D600000180040001C00400020004000400140EE
:100D700000440140004801400146888E704701460A
:100D8000088F704702460020138A0B400BB10120E8
:100D900000E000207047000070B50024002200230E
:100DA000058C4FF6FF6635400584028C8388848B62
:100DB0004FF68F752C404FF6FC752C400D882C4358
:100DC0004FF6FF552A400D894FF6FF7606EA0525B6
:100DD0002A434D8806EA05252A43154DA84202D02C
:100DE000144DA8421DD14FF2FF752A404D894FF690
:100DF000FF7606EA05252A434FF6FF352A408D88FF
:100E000006EA05252A434EF6FF752B404DF6FF7581
:100E10002B408D8906EA05152B43CD8906EA051579
:100E20002B4383808483CD888587028470BD000036
:100E3000002C01400034014000210180418081806C
:100E4000C180018141818181C18170472DE9F041DB
:100E500005460C4600260127608808B9022600E0F6
:100E60000026A088012801D1022700E00127208860
:100E7000A0B92389A28861882846FFF7DFFDE188B1
:100E8000284600F033F823893A4631462846FFF7D2
:100E900015FEE188284600F032F813E02389A28885
:100EA00061882846FFF70AFEE188284600F027F807
:100EB00023893A4631462846FFF7C0FDE188284697
:100EC00000F014F8BDE8F0810A46002101894FF6D0
:100ED0008F73194011430181704702894FF67F7368
:100EE0001A40028102890A4302817047028B4FF641
:100EF000F3731A400283028B0A4302837047028B0A
:100F00004FF2FF331A400283028B4FF6FF7303EA5E
:100F100001231A4302837047002202881D4B984226
:100F20000ED01D4B98420BD0B0F1804F08D01B4B18
:100F3000984205D01A4B984202D01A4B984204D1DD
:100F40004FF68F731A404B881A43174B984207D0BD
:100F5000164B984204D04FF6FF431A40CB881A43F1
:100F600002808B8883850B8803850A4B98420BD0BF
:100F7000094B984208D00E4B984205D00D4B984231
:100F800002D00D4B984201D10B7A03860123838254
:100F900070470000002C0140003401400004004074
:100FA00000080040000C0040001000400014004009
:100FB00000400140004401400048014010B540F2AB
:100FC0002551064800F091F930B10448001D008811
:100FD000C1B2034800F0C8F910BD0000003801405C
:100FE0000800002010B50446E4B901210520FFF7F0
:100FF000DFFB01218803FFF7DBFB4FF4007018498A
:1010000008801820C870032088701648FFF742FA3D
:101010004FF48060124908800420C8701148FFF71F
:1010200039FA1BE0012C19D101210820FFF7C0FB80
:1010300001218803FFF7BCFB4020094908801820E4
:10104000C870032088700848FFF724FA80200449FC
:1010500008800420C8700448FFF71CFA10BD000087
:101060002C00002000080140000C014010B540F2A7
:101070002551064800F039F930B10448001D0088B8
:10108000C1B2034800F070F910BD000000440040F8
:101090001400002010B5044601214804FFF768FB46
:1010A000022C1AD101210420FFF782FB0121480400
:1010B000FFF75EFB0420174908801820C870032042
:1010C00088701548FFF7E6F90820124908800420C7
:1010D000C8701148FFF7DEF91BE0032C19D101217C
:1010E0002020FFF765FB01214804FFF741FB20208A
:1010F000084908801820C870032088700748FFF747
:10110000C9F94020034908800420C8700348FFF74C
:10111000C1F910BD2C00002000080140001401405E
:1011200010B540F22551064800F0DFF830B1044810
:10113000001D0088C1B2034800F016F910BD000080
:10114000004800402000002010B50446012188041A
:10115000FFF70EFB042C1AD101210820FFF728FB12
:1011600001218804FFF724FB200228490880182069
:10117000C870032088702648FFF78CF96002234965
:1011800008800420C8702248FFF784F93CE0052C51
:101190001CD101211020FFF70BFB01218804FFF770
:1011A00007FB4FF48060194908801820C87003209D
:1011B00088701848FFF76EF94FF4006013490880F3
:1011C0000420C8701348FFF765F91DE0062C1BD1F9
:1011D00001212020FFF7ECFA01218804FFF7E8FA4B
:1011E0004FF48070094908801820C8700320887067
:1011F0000948FFF74FF94FF40070044908800420B4
:10120000C8700548FFF746F910BD00002C0000200B
:10121000000C0140001001400014014021B18289FE
:1012200042F40052828104E082894DF6FF731A4035
:101230008281704710B504462048844209D10121BB
:101240008803FFF7C5FA00214FF48040FFF7C0FA8A
:1012500032E01B48844209D101214804FFF798FA83
:1012600000214FF40030FFF793FA25E0154884423F
:1012700009D101218804FFF78BFA00214FF4802067
:10128000FFF786FA18E01048844209D10121C8040A
:10129000FFF77EFA00214FF40020FFF779FA0BE008
:1012A0000A48844208D101210805FFF771FA00219C
:1012B0004FF48010FFF76CFA10BD000000380140B9
:1012C0000044004000480040004C004000500040F6
:1012D00002460020B1F5007F00D100BF13880B400B
:1012E0000BB1012000E00020704770B502460024D9
:1012F00000230025002040F66A16B14200D100BF4D
:10130000C1F3421501F01F03012606FA03F3012D74
:1013100002D19689334006E0022D02D1168A33406D
:1013200001E0968A33400C12012606FA04F416886E
:10133000344013B10CB1012000E0002070BD00006A
:101340000146064A914200D10020054A914200D14F
:101350000120044A914200D1022070470038014028
:10136000004400400048004010B5C28883889A427B
:101370000FDA028983889A4201D1002202814AB29F
:10138000048903681A550289521C0281C288521CC2
:10139000C28010BDF0B503460024002600250020C1
:1013A00040F66A17B94200D100BF1846C1F3421493
:1013B00001F01F06012707FA06F5012C01D10C30B8
:1013C00004E0022C01D1103000E014301AB107689B
:1013D0002F43076002E00768AF430760F0BD0000DD
:1013E0002DE9F04786B005460E460024A24600BF10
:1013F000A1460027B08900B100BF2F462C8A4CF6C9
:10140000FF700440F08804432C82AC894EF6F31040
:101410000440B08831890843718908430443AC8192
:10142000AC8A4FF6FF400440B0890443AC8201A867
:10143000FFF7DEF91F48874202D1DDF810A001E076
:10144000DDF80CA0A88900F4004040B10AEBCA0006
:1014500000EB0A1031684900B0FBF1F807E00AEB35
:10146000CA0000EB0A1031688900B0FBF1F8642073
:10147000B8FBF0F004012009642101FB1089A88960
:1014800000F4004040B1322000EBC900B0FBF1F0A5
:1014900000F00700044308E0322000EB091064214B
:1014A000B0FBF1F000F00F0004432C8106B0BDE862
:1014B000F08700000038014013B5044600BF8021CA
:1014C0002046FFF705FF0028F9D09DF80400A08012
:1014D0001CBD000070B586B004460D461646029647
:1014E0003348844212D12846FFF77CFD25208DF831
:1014F00004000020ADF814000C20ADF8120000200C
:10150000ADF81000ADF80E00ADF80C00294884428B
:1015100012D12846FFF7BEFD26208DF804000020DA
:10152000ADF814000C20ADF812000020ADF810004A
:10153000ADF80E00ADF80C001F48844212D12846C9
:10154000FFF702FE27208DF804000020ADF81400FC
:101550000C20ADF812000020ADF81000ADF80E0020
:10156000ADF80C0000212046FFF758FE2046FFF79B
:1015700061FE02A92046FFF733FF01212046FFF755
:101580004DFE012240F225512046FFF703FF0120C6
:101590008DF8070000208DF805002046FFF7D0FEEB
:1015A0008DF8060001A8FFF7A9F806B070BD00008D
:1015B00000380140004400400048004000BFFEE702
:1015C00010B56FF00400FFF7F3F90A4800680A4904
:1015D000B0FBF1F0094908700846007800EB4001C3
:1015E000C1EBC0104FF6FF7101EAC000044908804A
:1015F00010BD00004800002000127A00000000200A
:10160000020000200146114A12884A434FF0E023AD
:101610005A6100229A611A46126942F001021A6167
:1016200000BF4FF0E022106900F001021AB100F48F
:101630008032002AF5D04FF0E022126922F0010238
:101640004FF0E0231A6100229A61704702000020E7
:1016500070B504460D46E1B20248FFF72DFF204663
:1016600070BD00000038014008B50120ADF8000051
:1016700003208DF8020018208DF803006946084801
:10168000FEF708FF4020ADF8000003208DF80200AF
:1016900004208DF8030069460248FEF7FBFE08BDF2
:1016A000000C01400008014000BF00BF00BFFFF771
:1016B00087FF0121152000F023F80021162000F0FB
:1016C0001FF84FF4E13200210948FFF703FFFEF74E
:1016D000A9FF0CE0FEF76AFF06490880084601886A
:1016E00005A0FEF797FD4FF4FA70FFF78BFFF1E7C7
:1016F000003801404400002025646D6D0A000000A0
:10170000F8B505460C4605EB4500294951F830600F
:1017100005EB450001EBC000808887B205EB450171
:10172000234A02EBC10188680121FFF741F8ADF8B7
:1017300000701CB904208DF8030034E0022C03D1A2
:1017400048208DF803002EE0032C03D128208DF8CB
:10175000030028E0012C06D110208DF8030003209F
:101760008DF802001FE0072C06D114208DF803002D
:1017700003208DF8020016E0042C06D11C208DF801
:10178000030003208DF802000DE0052C06D118207F
:101790008DF8030003208DF8020004E0062C02D12E
:1017A00000208DF8030069463046FEF773FEF8BD51
:1017B000381A00084FEA1153A3F58063D3F11E03D2
:1017C000A8BFD3F1200C08DB4FF0004242EAC1224F
:1017D00052EA505232FA03F0704709420BD4102BF0
:1017E000C4BF0020704703F5787CBCF1FF3F05D0F3
:1017F0004FF0FF3070474FF00000704770B500F0B9
:10180000C7F800BF4992248000207047F0E710F02D
:10181000004248BF4042B0FA80F310FA03F10AD008
:10182000C3F11D0303F580634FEA415002EB0352FD
:1018300002EBD12170474FF000007047DFF848C13C
:1018400070B51CEA111E1EBF1CEA13159EEA0C0F90
:1018500095EA0C0F00F06F8081EA030423EA4C1331
:101860004EEAD47E21EA4C1141F4801143F48013F6
:10187000AE44A1FB024CA0FB0365AEF17F7E36199E
:1018800055EB0C05A1FB034C4CF10003A0FB021C23
:1018900016EB0C06654153F10003094218BF46F0F0
:1018A000010613F4007F0BD14FEA03314FEA0530F4
:1018B000340341EA155140EA16506FF003020AE082
:1018C0004FEAC3214FEAC520F40241EA555140EAEC
:1018D00056506FF0020202EB2E4201EB025585EAF0
:1018E000CE710AD05FEA440C18BF24F0004450F1D6
:1018F000000041F1000120EAD47040F2FE7C624514
:1019000000D270BDA84214BF4FF080444FF0404455
:10191000002E08BF0024BEF1806FA8BFA1F1C04116
:10192000BDE8704080F282804FF0000001F1C041BC
:1019300001F0004170479EEA0C0F0CEA131518BF26
:1019400095EA0C0F06D04FF0000081EA030E0EF06E
:10195000004170BD00F01CF88900013E00F007B89E
:1019600000F009B84FEA430C5FEA5C5C08D081EAFA
:10197000030100F05BB84FEA410C5FEA5C5CF6D112
:101980004FF00000014970470000FF070000F87F9A
:101990000EF1020E2EF0030E5EF8046B364205D4F3
:1019A000012A43EB030515F5001F12D8012841EB6E
:1019B000010C1CF5001F0CD80ED14FEAD17C15F597
:1019C000001F0CEB4C0C0CF1020C08BF4CEBD37C51
:1019D00004E04FF0080C01E04FEAD37C0CEB4C051F
:1019E00026FA05F606F00706B6F1040C06D20EEB51
:1019F000860CBDE870404CF0010C6047DFE80CF04D
:101A0000090B02024FF000414FF00000A1F5002148
:101A100070BD19461046012851EB010418BFD4F5DA
:101A2000001484BF002001F0004170BD0808A0F53B
:101A300000114FEA31017047000801400100000029
:101A40000400000000000000000C00400000000046
:101A50000008014002000000040000000100000036
:101A600000000040040000000008014004000000E5
:101A70000400000002000000000000400800000018
:101A800000080140080000000400000003000000FE
:101A9000000000400C0000000008014010000000A1
:101AA000040000000400000000000000000000002E
:101AB00000080140200000000400000005000000B4
:101AC000000000000000000000080140400000008D
:101AD00004000000060000000004004000000000B8
:101AE0000008014080000000040000000700000022
:101AF0000004004004000000000801400001000054
:101B00000400000000000000002C01400000000064
:101B10000008014000020000040000000000000076
:101B2000002C0140040000000008014000040000F7
:101B30000400000000000000002C0140080000002C
:101B40000008014000080000040000000000000040
:101B5000002C01400C0000000008014000100000B3
:101B60000400000000000000000000000000000071
:101B700000080140002000000400000000000000F8
:101B800000000000000000000008014000400000CC
:101B90000400000000000000000000000000000041
:101BA0000008014000800000040000000000000068
:101BB0000000000000000000000C014001000000D7
:101BC00008000000080000000004004008000000B9
:101BD000000C0140020000000800000009000000A5
:101BE000000400400C000000000C01400400000054
:101BF00008000000000000000000000000000000DD
:101C0000000C014008000000080000000000000077
:101C10000000004004000000000C01401000000023
:101C20000800000000000000000400400000000068
:101C3000000C01402000000008000000000000002F
:101C40000004004004000000000C014040000000BF
:101C50000800000000000000000800400000000034
:101C6000000C01408000000008000000000000009F
:101C70000008004004000000000C014000010000CA
:101C800008000000000000000050014000000000BB
:101C9000000C0140000200000800000000000000ED
:101CA0000054014000000000000C0140000400004E
:101CB00008000000000000000000004008000000D4
:101CC000000C0140000800000800000000000000B7
:101CD000000000400C000000000C0140001000005B
:101CE00008000000000000000000000000000000EC
:101CF000000C01400020000008000000000000006F
:101D00000000000000000000000C01400040000046
:101D10000800000000000000001800400000000063
:101D2000000C0140008000000800000000000000DE
:101D300000180040040000000010014001000000F5
:101D4000100000000A000000000000000000000079
:101D50000010014002000000100000000B00000015
:101D6000000000000000000000100140040000001E
:101D7000100000000C000000000000000000000047
:101D80000010014008000000100000000D000000DD
:101D900000000000000000000010014010000000E2
:101DA000100000000E000000000000000000000015
:101DB0000010014020000000100000000E00000094
:101DC0000000000000000000001001404000000082
:101DD000100000000000000000340140000000007E
:101DE0000010014080000000100000000000000012
:101DF0000034014004000000001001400001000018
:101E00001000000000000000003401400800000045
:101E1000001001400002000010000000000000005F
:101E2000003401400C0000000010014000040000DC
:101E30001000000000000000000000000000000092
:101E40000010014000080000100000000000000029
:101E50000000000000000000001001400010000021
:101E60001000000000000000000000000000000062
:101E700000100140002000001000000000000000E1
:101E800000000000000000000010014000400000C1
:101E90001000000000000000000000000000000032
:101EA0000010014000800000100000000000000051
:101EB00000000000000000000014014001000000CC
:101EC00020000000000000000000000000000000F2
:101ED000001401400200000020000000000000008B
:101EE0000000000000000000001401400400000099
:101EF00020000000000000000000000000000000C2
:101F00000014014008000000200000000000000054
:101F1000000000000000000000140140100000005C
:101F20002000000000000000000000000000000091
:101F3000001401402000000020000000000000000C
:101F400000000000000000000014014040000000FC
:101F50002000000000000000000000000000000061
:101F6000001401408000000020000000000000007C
:101F7000000000000000000000140140000100000B
:101F80002000000000000000000000000000000031
:101F900000140140000200002000000000000000CA
:101FA00000000000000000000014014000040000D8
:101FB0002000000000000000000000000000000001
:101FC0000014014000080000200000000000000094
:101FD000000000000000000000140140001000009C
:101FE0002000000000000000000800400000000089
:101FF000001401400020000020000000000000004C
:1020000000080040040000000014014000400000EF
:102010002000000000000000000800400800000050
:1020200000140140008000002000000000000000BB
:10203000000800400C0000000018014001000000F2
:102040004000000000000000000000000000000050
:1020500000180140020000004000000000000000E5
:102060000000000000000000001801400400000013
:102070004000000000000000000000000000000020
:1020800000180140080000004000000000000000AF
:1020900000000000000000000018014010000000D7
:1020A00040000000000000000000000000000000F0
:1020B0000018014020000000400000000000000067
:1020C0000010004000000000001801404000000027
:1020D000400000000000000000100040040000006C
:1020E00000180140800000004000000000000000D7
:1020F0000000000000000000001801400001000086
:10210000400000000000000000000000000000008F
:102110000018014000020000400000000000000024
:10212000002C0140000000000018014000040000E5
:10213000400000000000000000000000000000005F
:1021400000180140000800004000000000000000EE
:10215000002C0140040000000018014000100000A5
:10216000400000000000000000000000000000002F
:1021700000180140002000004000000000000000A6
:10218000002C014008000000001801400040000041
:102190004000000000000000002C01400C00000086
:1021A0000018014000800000400000000000000016
:1021B0000000000000000000001C014001000000C1
:1021C000800000000000000000000000000000008F
:1021D000001C014002000000800000000000000020
:1021E0000000000000000000001C0140040000008E
:1021F000800000000000000000000000000000005F
:10220000001C0140080000008000000000000000E9
:102210000000000000000000001C01401000000051
:10222000800000000000000000000000000000002E
:10223000001C0140200000008000000000000000A1
:102240000000000000000000001C014040000000F1
:1022500080000000000000000000000000000000FE
:10226000001C014080000000800000000000000011
:102270000000000000000000001C01400001000000
:1022800080000000000000000000000000000000CE
:10229000001C01400002000080000000000000005F
:1022A0000000000000000000001C014000040000CD
:1022B000800000000000000000000000000000009E
:1022C000001C014000080000800000000000000029
:1022D0000000000000000000001C01400010000091
:1022E000800000000000000000000000000000006E
:1022F000001C0140002000008000000000000000E1
:102300000000000000000000001C01400040000030
:10231000800000000000000000000000000000003D
:10232000001C014000800000800000000000000050
:1023300000000000000000005823000800000020FA
:102340005C0000006C010008B42300085C00002061
:10235000C406000088010008000000000000000022
:102360005C00002020000000000000007C00002035
:1023700020000000000000009C0000202000000061
:102380000000000000000000000000000102030443
:102390000102030406070809020406080000000001
:1023A00000A24A0400000000000000000102030433
:0423B000060708090B
:0400000508000131BD
:00000001FF
