:020000040800F2
:1000000090070020CD010008A30300089B0300080F
:100010009F0300087F020008A906000800000000F6
:10002000000000000000000000000000C9030008FC
:100030008302000800000000A5030008DD0400089A
:10004000E7010008E7010008E7010008E7010008F0
:10005000E7010008E7010008E7010008E7010008E0
:10006000E7010008E7010008E7010008E7010008D0
:10007000E7010008E7010008E7010008E7010008C0
:10008000E7010008E7010008E7010008E7010008B0
:10009000E7010008E7010008E7010008E7010008A0
:1000A000E701000841050008E7010008E701000832
:1000B000E7010008E7010008E7010008E701000880
:1000C000E7010008E7010008E7010008E701000870
:1000D000E7010008E7010008D9050008010600084B
:1000E000E7010008E7010008E7010008E701000850
:1000F000E7010008E7010008E7010008E701000840
:10010000E7010008E7010008E7010008E70100082F
:100110008D050008B5050008E7010008E7010008A3
:10012000E7010008E7010008E7010008E70100080F
:1001300000F002F800F03AF80AA090E8000C8244BF
:100140008344AAF10107DA4501D100F02FF8AFF29C
:10015000090EBAE80F0013F0010F18BFFB1A43F0A5
:10016000010318474C0700006C070000103A24BF39
:1001700078C878C1FAD8520724BF30C830C144BF0C
:1001800004680C607047000000230024002500264E
:10019000103A28BF78C1FBD8520728BF30C148BFEA
:1001A0000B6070471FB51FBD10B510BD00F031F8D2
:1001B0001146FFF7F7FF00F0C7FA00F04FF803B45D
:1001C000FFF7F2FF03BC00F053F800000948804736
:1001D00009480047FEE7FEE7FEE7FEE7FEE7FEE729
:1001E000FEE7FEE7FEE7FEE704480549054A064B41
:1001F00070470000E1040008310100089001002070
:100200009007002090030020900300207047704763
:100210007047754600F028F8AE460500694653461B
:1002200020F00700854618B020B5FFF7DDFFBDE8D8
:1002300020404FF000064FF000074FF000084FF04D
:10024000000B21F00701AC46ACE8C009ACE8C009DE
:10025000ACE8C009ACE8C0098D4670470446AFF36E
:1002600000802046FFF7ABFF004870472C010020BC
:1002700001491820ABBEFEE726000200704700BF10
:10028000FEE770472DE9F0410246002500260020D8
:1002900000230024002791F803C00CF00F0591F80B
:1002A00003C00CF0100CBCF1000F03D091F802C099
:1002B0004CEA050591F800C0BCF1000F31D014687C
:1002C00000202BE04FF0010C0CFA00F3B1F800C055
:1002D0000CEA03069E4220D183004FF00F0C0CFA6B
:1002E00003F7BC4305FA03FC4CEA040491F803C08D
:1002F000BCF1280F06D14FF0010C0CFA00FCC2F83B
:1003000014C00AE091F803C0BCF1480F05D14FF0CA
:10031000010C0CFA00FCC2F810C0401C0828D1D314
:100320001460B1F800C0BCF1FF0F34DD5468002048
:100330002EE000F1080C4FF0010808FA0CF3B1F8B8
:1003400000C00CEA03069E4221D183004FF00F0C3F
:100350000CFA03F7BC4305FA03FC4CEA040491F8D9
:1003600003C0BCF1280F05D100F1080C08FA0CF805
:10037000C2F8148091F803C0BCF1480F07D100F116
:10038000080C4FF0010808FA0CF8C2F81080401C65
:100390000828CED35460BDE8F08100BFFEE700BF5F
:1003A000FEE770477047000029B1064A9269024390
:1003B000044B9A6104E0034A92698243014B9A61BB
:1003C0007047000000100240704710B500F002F8BE
:1003D00010BD00000CB5002001900090334800686B
:1003E00040F480303149086000BF3048006800F4B4
:1003F000003000900198401C0190009818B90198B5
:10040000B0F5A06FF1D12948006800F4003010B1B8
:100410000120009001E0002000900098012843D1C5
:100420002348006840F01000214908600846006831
:1004300020F0030008600846006840F002000860F1
:100440001A484068194948600846406848600846AC
:10045000406840F4806048600846406820F47C10A2
:1004600048600846406840F4E81048600846006864
:1004700040F08070086000BF0C48006800F0007019
:100480000028F9D00948406820F003000749486077
:100490000846406840F00200486000BF03484068DA
:1004A00000F00C000828F9D10CBD0000001002403B
:1004B00000200240042808D14FF0E021096941F0F2
:1004C00004014FF0E022116107E04FF0E0210969DB
:1004D00021F004014FF0E0221161704770470000E5
:1004E00010B51348006840F0010011490860084643
:1004F0004068104908400E494860084600680E49A7
:1005000008400B4908600846006820F48020086015
:100510000846406820F4FE0048604FF41F008860E1
:10052000FFF753FF4FF000600449086010BD000062
:10053000001002400000FFF8FFFFF6FE08ED00E0AB
:1005400000200F4908800F4801880088401C0D4A90
:1005500010800D480088814208DB09481038008867
:1005600020F0010006491039088007E004481038DF
:10057000008840F0010002491039088070470000EF
:10058000102C0140560000205400002010B540F20D
:100590002551064800F048F830B10448001D008895
:1005A000C1B2034800F06AF810BD0000004C0040E2
:1005B0002C00002010B540F22551054800F034F819
:1005C00028B103488088C1B2024800F057F810BD36
:1005D000005000403800002010B540F22551064878
:1005E00000F022F830B10448001D0088C1B2034871
:1005F00000F044F810BD000000440040140000204A
:1006000010B540F22551064800F00EF830B104480C
:10061000001D0088C1B2034800F030F810BD000092
:10062000004800402000002070B50246002400234E
:100630000025002040F66A16B14200D100BFC1F388
:10064000421501F01F03012606FA03F3012D02D122
:100650009689334006E0022D02D1168A334001E02C
:10066000968A33400C12012606FA04F416883440A8
:1006700013B10CB1012000E0002070BD10B5C2889C
:1006800083889A420FDA028983889A4201D1002234
:1006900002814AB2048903681A550289521C0281F8
:1006A000C288521CC28010BD00BFFEE710B56FF0BB
:1006B0000400FFF7FFFE0A4800680A49B0FBF1F0AA
:1006C000094908700846007800EB4001C1EBC010F2
:1006D0004FF6FF7101EAC0000449088010BD000018
:1006E0005800002000127A000000002002000020C4
:1006F00008B501211020FFF757FE4FF40050ADF868
:10070000000010208DF8030003208DF802006946D8
:100710000148FFF7B7FD08BD0010014008B50121F1
:100720000420FFF741FE40F20110ADF80000182050
:100730008DF8030003208DF8020069460148FFF799
:10074000A1FD08BD0008014001210420FFF72CFE97
:10075000FFF7ACFFFFF7E2FFFFF7CAFF0A224821CD
:10076000012000F003F800BFFEE70000F0B50346EB
:1007700014464948806940F40060474A9061474800
:10078000008820F07000454A1080104600881080D4
:100790001046008820F440701080104600881080B9
:1007A000481E3E4A2C32108000EBD072C2F34F023A
:1007B0003A4D34352A80581E384A2832108000209D
:1007C0002A1F10800120354A143210800020334A3D
:1007D000083210803148008840F008002F4A10800D
:1007E0002E48183000884FF68F7210402B4A18326E
:1007F0001080104600884FF6FC721040274A1832CD
:1008000010801046008840F070001080234820308F
:1008100000884FF6FD721040204A203210801046AA
:1008200000881080012010801C484430008840F46B
:1008300000401A4A443210800020184A10321080BA
:100840000120121F108019200022002807DA150746
:100850002F0E134D00F00F06361FAF5503E015079E
:100860002E0E104D2E5400BF192001228240450942
:10087000AD0005F1E025C5F8002100BF074800885C
:1008800040F00100054A1080601E074A10800020D9
:10089000064A1080F0BD000000100240002C01400C
:1008A00018ED00E000E400E05400002056000020B5
:1008B000D0080008000000206C0000006C01000857
:1008C0003C0900086C000020240700008801000893
:1008D00000000000000000006C000020200000006C
:1008E000000000008C00002020000000000000003C
:1008F000AC0000202000000000000000CC00002020
:100900002000000000000000EC000020200000009B
:10091000000000000C01002020000000000000008A
:10092000000000000000000000A24A0400000000D7
:0C09300000000000010203040607080993
:0400000508000131BD
:00000001FF
