:020000040800F2
:10000000C8060020CD0100085507000811040008AB
:100010001107000887020008CD0F0008000000004B
:10002000000000000000000000000000AD08000813
:100030008B0200080000000057070008A90A00080A
:10004000E7010008E7010008E7010008E7010008F0
:10005000E7010008E7010008E7010008E7010008E0
:10006000E7010008E7010008E7010008E7010008D0
:10007000E7010008E7010008E7010008E7010008C0
:10008000E7010008E7010008E7010008E7010008B0
:10009000E7010008E7010008E7010008E7010008A0
:1000A000E7010008E7010008E7010008E701000890
:1000B000E7010008E7010008E7010008E701000880
:1000C000E7010008E7010008E7010008E701000870
:1000D000E7010008E7010008E7010008E701000860
:1000E000E7010008E7010008E7010008E701000850
:1000F000E7010008E7010008E7010008E701000840
:10010000E7010008E7010008E7010008E70100082F
:10011000E7010008E7010008E7010008E70100081F
:10012000E7010008E7010008E7010008E70100080F
:1001300000F002F800F03AF80AA090E8000C8244BF
:100140008344AAF10107DA4501D100F02FF8AFF29C
:10015000090EBAE80F0013F0010F18BFFB1A43F0A5
:10016000010318476015000080150000103A24BFF5
:1001700078C878C1FAD8520724BF30C830C144BF0C
:1001800004680C607047000000230024002500264E
:10019000103A28BF78C1FBD8520728BF30C148BFEA
:1001A0000B6070471FB51FBD10B510BD00F031F8D2
:1001B0001146FFF7F7FF01F0B1F800F04FF803B474
:1001C000FFF7F2FF03BC00F057F800000948804732
:1001D00009480047FEE7FEE7FEE7FEE7FEE7FEE729
:1001E000FEE7FEE7FEE7FEE704480549054A064B41
:1001F00070470000AD0A000831010008C800002067
:10020000C8060020C8020020C802002070477047BE
:100210007047754600F02CF8AE4605006946534617
:1002200020F00700854618B020B5FFF7DDFFBDE8D8
:1002300020404FF000064FF000074FF000084FF04D
:10024000000B21F00701AC46ACE8C009ACE8C009DE
:10025000ACE8C009ACE8C0098D46704710B504464B
:10026000AFF300802046BDE81040FFF7A8BF0000B4
:10027000004870476800002001491820ABBEFEE727
:1002800026000200704700BFFEE7704710B500214E
:10029000054800F030FE00BF034800F0C7FDB0F590
:1002A0007A7FF9DB10BD00000004004010B5044661
:1002B00002E0FFF7EBFF641E002CFAD110BD000036
:1002C00010B504460021054800F015FE00BF0348A4
:1002D00000F0ACFDA042FAD310BD000000040040C5
:1002E0002DE9F041024600250026002000230024CD
:1002F000002791F803C00CF00F0591F803C00CF033
:10030000100CBCF1000F03D091F802C04CEA0505B7
:1003100091F800C0BCF1000F31D0146800202BE030
:100320004FF0010C0CFA00F3B1F800C00CEA030620
:100330009E4220D183004FF00F0C0CFA03F7BC4310
:1003400005FA03FC4CEA040491F803C0BCF1280F41
:1003500006D14FF0010C0CFA00FCC2F814C00AE000
:1003600091F803C0BCF1480F05D14FF0010C0CFA15
:1003700000FCC2F810C0401C0828D1D31460B1F8AA
:1003800000C0BCF1FF0F34DD546800202EE000F106
:10039000080C4FF0010808FA0CF3B1F800C00CEAA1
:1003A00003069E4221D183004FF00F0C0CFA03F795
:1003B000BC4305FA03FC4CEA040491F803C0BCF109
:1003C000280F05D100F1080C08FA0CF8C2F81480C7
:1003D00091F803C0BCF1480F07D100F1080C4FF0B1
:1003E000010808FA0CF8C2F81080401C0828CED387
:1003F0005460BDE8F0810246002093680B400BB1C9
:10040000012000E0002070474161704701617047A2
:1004100000BFFEE710B504461CB101200449C870B6
:1004200002E000200249C87000F00AF810BD000088
:100430000000002010B5012000F070F810BD000091
:1004400010B500240EE00B480078401009490870F0
:100450000948005D20B10846007840F0800008702F
:10046000601CC4B2082CEEDB012202497E2000F0A1
:10047000C8F810BD080000200000002010B5322090
:10048000FFF714FF00F046F9002404E000201B49A8
:100490000855601CC4B2082CF8DBFFF7D1FF002020
:1004A00016490870FFF7CCFF002014494870FFF789
:1004B000C7FF032000F04AF80520FFF7F7FE0320EE
:1004C00000F044F80120FFF7F1FE032000F03EF8B1
:1004D0000120FFF7EBFE022000F038F80120FFF7C3
:1004E000E5FE282000F01AF80C2000F017F80E2086
:1004F00000F014F8012000F011F810BD00000020F9
:1005000010B5044607E0207820B114F8010B00F084
:10051000D1F800E000E0F6E700BF10BD10B50446DA
:1005200000F092F8002008490870FFF789FF0020CA
:1005300005494870FFF784FF201100F007F82046B6
:1005400000F004F810BD00000000002010B50446C3
:1005500004F0080018B101201749C87102E000201A
:100560001549C87104F0040018B1012012498871BE
:1005700002E000201049887104F0020018B1012047
:100580000D49487102E000200B49487104F0010058
:1005900018B101200849087102E0002006490871DD
:1005A000012005498870FFF74BFF00200249887041
:1005B000FFF746FF10BD0000000000202DE9F041CC
:1005C00007460D46164600F015FE384600F052FE6E
:1005D00020B900F033FE0020BDE8F081002405E0E2
:1005E000012000F0B7FD2855601CC4B2701EA04267
:1005F000F6DC002000F0AEFD285500F01FFE0120C3
:10060000EAE72DE9F04107460D46164600F0F2FDF7
:10061000384600F02FFE20B900F010FE0020BDE8A3
:10062000F081002409E0285D00F024FE18B900F0F4
:1006300005FE0020F3E7601CC4B2B442F3DB00F017
:10064000FDFD0120EBE7000008B501201849087105
:1006500048718871C871FFF7F3FE002014490870D3
:10066000FFF7EEFE012012494870FFF7E9FE00BFD8
:1006700001200F498870FFF7E3FE012269463F2001
:10068000FFF79CFF00200A498870FFF7D9FE012080
:1006900007498870FFF7D4FE002005498870FFF7EE
:1006A000CFFE9DF8000000F008000028E0D108BD52
:1006B0000000002010B50446FFF7C6FF01200849DE
:1006C0000870FFF7BDFE002005494870FFF7B8FE2F
:1006D0002011FFF73BFF2046FFF738FF10BD000059
:1006E0000000002008B50121102000F055F84FF45B
:1006F0000050ADF8000010208DF8030003208DF8A5
:10070000020069460148FFF7EBFD08BD00100140FB
:1007100000BFFEE708B50121082000F03DF81420D5
:100720008DF803004FF44060ADF8000003208DF811
:10073000020069460648FFF7D3FD4FF48061044884
:10074000FFF764FE4FF400610148FFF75FFE08BD4C
:10075000000C01407047704729B1064AD269024334
:10076000044BDA6104E0034AD2698243014BDA6147
:10077000704700000010024029B1064A1269024386
:10078000044B1A6104E0034A12698243014B1A6167
:10079000704700000010024029B1064A92690243E6
:1007A000044B9A6104E0034A92698243014B9A61C7
:1007B000704700000010024029B1064AD268024387
:1007C000044BDA6004E0034AD2688243014BDA60EA
:1007D000704700000010024030B5002100220024C4
:1007E00000232D4D6D6805F00C0121B1042905D0C1
:1007F000082923D105E0294D056022E0274D056039
:100800001FE0254D6D6805F47012234D6D6805F4E9
:100810008034022505EB92421CB9214D55430560F9
:100820000BE01D4D6D6805F400351DB11C4D5543A1
:10083000056002E0194D5543056002E0174D056063
:1008400000BF00BF144D6D6805F0F0010909154D9A
:100850006B5C0568DD4045600F4D6D6805F4E06137
:10086000090A104D6B5C4568DD4085600A4D6D6876
:1008700005F46051C90A0B4D6B5C4568DD40C560ED
:10088000054D6D6805F44041890B074D6B5CC568EB
:10089000B5FBF3F5056130BD0010024000127A008F
:1008A00000093D000900002019000020704710B524
:1008B00000F002F810BD00000CB50020019000907F
:1008C0003348006840F480303149086000BF304848
:1008D000006800F4003000900198401C01900098DE
:1008E00018B90198B0F5A06FF1D12948006800F45B
:1008F000003010B10120009001E00020009000982D
:10090000012843D12348006840F0100021490860C5
:100910000846006820F0030008600846006840F0C0
:10092000020008601A484068194948600846406853
:1009300048600846406840F4806048600846406867
:1009400020F47C1048600846406840F4E810486095
:100950000846006840F08070086000BF0C480068DE
:1009600000F000700028F9D00948406820F003002A
:10097000074948600846406840F00200486000BFF0
:100980000348406800F00C000828F9D10CBD0000B5
:10099000001002400020024010B5044634B1012C82
:1009A00011D0022C21D0032C35D127E001201B4986
:1009B000086000201A4908601A490860C0211A48D6
:1009C000FFF722FD27E000201449086001201449A8
:1009D000086000201349086040211348FFF714FD08
:1009E00080211148FFF712FD15E080210E48FFF726
:1009F0000BFD40210C48FFF709FD0CE000200749E2
:100A0000086007490860012006490860C0210648BF
:100A1000FFF7FCFC00BF00BF10BD0000400000203D
:100A200048000020440000200008014010B50446A2
:100A300034B1012C09D0022C10D0032C1CD116E0AB
:100A400030210E48FFF7E0FC16E010210B48FFF7BD
:100A5000DBFC20210948FFF7D9FC0DE020210748E5
:100A6000FFF7D2FC10210548FFF7D0FC04E030214D
:100A70000248FFF7CBFC00BF00BF10BD00080140DB
:100A8000042808D14FF0E021096941F004014FF03A
:100A9000E022116107E04FF0E021096921F0040133
:100AA0004FF0E022116170477047000010B5134805
:100AB000006840F00100114908600846406810498C
:100AC00008400E494860084600680E4908400B4936
:100AD00008600846006820F48020086008464068E6
:100AE00020F4FE0048604FF41F008860FFF7DFFE2F
:100AF0004FF000600449086010BD00000010024083
:100B00000000FFF8FFFFF6FE08ED00E0F0B50C4630
:100B1000154600220021068C4FF6FE773E400684E3
:100B2000028B018C4FF60C7632407E1C06EA0316CF
:100B30002E433243104EB0420ED0104EB0420BD076
:100B4000B0F1804F08D00E4EB04205D00D4EB042ED
:100B500002D00D4EB04206D14FF6FD76314044F042
:100B60000106314305E04FF6F576314044F00106C9
:100B7000314302830184F0BD002C01400034014068
:100B80000004004000080040000C0040F0B50C4696
:100B90001546002200210026078C4FF6EF7C07EA5D
:100BA0000C070784028B018C4FF6FF7707EA0416C7
:100BB00040F6FF473A404FF6FF7707EA03373A43DC
:100BC0004FF6FF7707EA05273A43114FB8420ED098
:100BD000104FB8420BD0B0F1804F08D00E4FB84242
:100BE00005D00E4FB84202D00D4FB84206D14FF695
:100BF000DF77394046F01007394305E04FF65F775D
:100C0000394044F01007394302830184F0BD0000ED
:100C1000002C014000340140000400400008004066
:100C2000000C0040CA430282704721B1028842F0A2
:100C30000102028004E002884FF6FE731A4002802F
:100C40007047000010B504466848844208D101216D
:100C5000C014FFF7B1FD0021E014FFF7ADFDC4E0C3
:100C6000B4F1804F08D101210846FFF785FD00212E
:100C70000120FFF781FDB8E05D48844208D10121E1
:100C80000220FFF779FD00210220FFF775FDACE09F
:100C90005848844208D101210420FFF76DFD00214E
:100CA0000420FFF769FDA0E05348844208D10121E8
:100CB0000820FFF761FD00210820FFF75DFD94E0AB
:100CC0004E48844208D101211020FFF755FD002134
:100CD0001020FFF751FD88E04948844208D10121E6
:100CE0002020FFF749FD00212020FFF745FD7CE093
:100CF0004448844208D101214014FFF75DFD0021E2
:100D00006014FFF759FD70E03F48844209D101218A
:100D1000C804FFF751FD00214FF40020FFF74CFD00
:100D200063E03A48844209D101210805FFF744FDF8
:100D300000214FF48010FFF73FFD56E03448844215
:100D400009D101214805FFF737FD00214FF40010BC
:100D5000FFF732FD49E02F48844208D101214020AD
:100D6000FFF70AFD00214020FFF706FD3DE02A487D
:100D7000844208D101218020FFF7FEFC0021802061
:100D8000FFF7FAFC31E02548844208D101218015A3
:100D9000FFF7F2FC0021A015FFF7EEFC25E020484C
:100DA000844209D101210804FFF706FD00214FF418
:100DB0008030FFF701FD18E01A48844209D1012173
:100DC0004804FFF7F9FC00214FF40030FFF7F4FC72
:100DD0000BE01548844208D101218804FFF7ECFCA0
:100DE00000214FF48020FFF7E7FC10BD002C0140EC
:100DF0000004004000080040000C004000100040CB
:100E00000014004000340140004C014000500140FB
:100E10000054014000180040001C00400020004029
:100E20000040014000440140004801400146888CD8
:100E3000704702460020138A0B400BB1012000E0EE
:100E4000002070472DE9F04105460C460026012799
:100E5000608808B9022600E00026A088012801D198
:100E6000022700E001272088A0B92389A288618891
:100E70002846FFF74BFEE188284600F03EF823891C
:100E80003A4631462846FFF781FEE188284600F0C1
:100E90003DF813E02389A28861882846FFF776FE93
:100EA000E188284600F032F823893A463146284640
:100EB000FFF72CFEE188284600F01FF8BDE8F0811E
:100EC0000A46002101894FF68F73194011430181B1
:100ED000704702894FF67F731A40028102890A43E4
:100EE0000281704702894FF6F8731A400281028925
:100EF0000A430281704781847047028B4FF6F37377
:100F00001A400283028B0A4302837047028B4FF21E
:100F1000FF331A400283028B4FF6FF7303EA01236B
:100F20001A43028370470000002202881D4B98423A
:100F30000ED01D4B98420BD0B0F1804F08D01B4B08
:100F4000984205D01A4B984202D01A4B984204D1CD
:100F50004FF68F731A404B881A43174B984207D0AD
:100F6000164B984204D04FF6FF431A40CB881A43E1
:100F700002808B8883850B8803850A4B98420BD0AF
:100F8000094B984208D00E4B984205D00D4B984221
:100F900002D00D4B984201D10B7A03860123838244
:100FA00070470000002C0140003401400004004064
:100FB00000080040000C00400010004000140040F9
:100FC00000400140004401400048014000BFFEE7EE
:100FD00010B56FF00400FFF753FD0A4800680A4996
:100FE000B0FBF1F0094908700846007800EB4001B9
:100FF000C1EBC0104FF6FF7101EAC0000449088040
:1010000010BD00005000002000127A006400002093
:10101000660000200146114A12884A434FF0E0233F
:101020005A6100229A611A46126942F001021A615D
:1010300000BF4FF0E022106900F001021AB100F485
:101040008032002AF5D04FF0E022126922F001022E
:101050004FF0E0231A6100229A6170476600002079
:101060000146114A12784A434FF0E0235A610022A8
:101070009A611A46126942F001021A6100BF4FF0EC
:10108000E022106900F001021AB100F48032002A57
:10109000F5D04FF0E022126922F001024FF0E02378
:1010A0001A6100229A617047640000200EB5012188
:1010B0000220FFF751FB0020ADF802004FF6FF7051
:1010C000ADF804004720ADF8000069460348FFF77B
:1010D0002BFF01210148FFF7A8FD0EBD00040040D1
:1010E00010B50020FFF758FC14480068012806D10D
:1010F0004FF47071F32000F0B5FA11490870032025
:10110000FFF74AFC0F480068012807D140F2BB31C5
:101110004FF4D77000F0A6FA0B4908700120FFF7D2
:101120003BFC0A480068012806D140F2B721CD20D7
:1011300000F098FA0649087010BD00004000002039
:101140004C000020440000204D00002048000020FA
:101150004E00002070B505464FF480612448FFF72B
:1011600055F90320FFF7ACF800261EE06006040ED8
:101170004FF400611E48FFF749F90320FFF7A0F87C
:101180004FF480611A48FFF736F908B144F00104C2
:101190000220FFF795F84FF400611548FFF734F986
:1011A0000520FFF78DF8701CC6B2082EDEDB2DB1CE
:1011B0004FF480610E48FFF727F904E04FF4806197
:1011C0000B48FFF723F90320FFF77AF84FF400618B
:1011D0000748FFF71BF90520FFF772F84FF400618D
:1011E0000348FFF711F90520FFF76AF8204670BDA4
:1011F000000C014010B54FF400610F48FFF706F9ED
:101200000320FFF75DF84FF480610B48FFF7FEF80D
:101210000320FFF755F84FF480610748FFF7F4F813
:101220000320FFF74DF84FF400610348FFF7ECF897
:101230000320FFF745F810BD000C014010B54FF436
:1012400080610B48FFF7E0F80320FFF739F84FF40F
:1012500000610748FFF7DAF80320FFF731F84FF491
:1012600080610348FFF7D2F80320FFF729F810BD8B
:10127000000C014070B50446002624E004F0800014
:1012800028B14FF480612448FFF7C0F804E04FF420
:1012900080612148FFF7B8F80320FFF711F84FF4F9
:1012A00000611D48FFF7B2F80520FFF709F84FF479
:1012B00000611948FFF7A8F80220FFF701F860065F
:1012C000040E701CC6B2082ED8DB4FF480611248A1
:1012D000FFF79CF80320FEF7F3FF4FF400610E4880
:1012E000FFF794F80320FEF7EBFF4FF480610A4804
:1012F000FFF781F808B1002500E001250220FEF784
:10130000DFFF4FF400610448FFF77EF80520FEF789
:10131000D7FF284670BD0000000C0140FFF7E2F93E
:10132000FFF756FEFFF7C2FEFFF752FEFFF7BEFEC5
:10133000FFF7F0F9FFF7A2F8FFF77CF80120FFF7BD
:1013400069F800F01FF90120FFF770FBC2E0FFF71A
:10135000C7FE61480078142817DA6048007814281E
:1013600013DA5F48007814280FDA8020FFF7D6F8E8
:101370005CA0FFF7C5F8C220FFF7D0F85EA0FFF72A
:10138000BFF84FF47A60FFF745FE554800788C2887
:1013900019DB52480078222815DC4F480078504964
:1013A000097888420FDA4D4800784B49097888421D
:1013B00009DAC120FFF7B2F854A0FFF7A1F84FF403
:1013C0007A60FFF727FE44480078B82801DD012045
:1013D00000E00020CB281EDA404800781E2801DB00
:1013E000012000E000203C2815DC3B4800783C4907
:1013F000097888420FDD3A480078384909788842F0
:1014000009DDC120FFF78AF845A0FFF779F84FF40E
:101410007A60FFF7FFFD31480078DE2819DB30489D
:101420000078C82815DB2E4800782B4909788842B7
:101430000FDD2948007829490978884209DAC12056
:10144000FFF76CF83AA0FFF75BF84FF47A60FFF70C
:10145000E1FD2148007810281EDC2048007846284D
:1014600001DB012000E00020642815DC1C48007826
:101470001949097888420FDD194800781749097819
:10148000884209DDC120FFF749F82EA0FFF738F8A0
:101490004FF47A60FFF7BEFD0F480078EA2819DBA9
:1014A0000F480078E62815DB0C4800780A490978CF
:1014B00088420FDA0A48007808490978884209DD2D
:1014C000C120FFF72BF824A0FFF71AF84FF47A6039
:1014D000FFF7A0FD3BE700004C0000204D0000207E
:1014E0004E00002020202074656368332053504B49
:1014F000542020200000000057414954494E472005
:101500005343414E202020200000000020424C5533
:1015100045206465746563746564202000000000E4
:1015200020475245454E20646574656374656400C8
:101530002050494E4B2064657465637465642020B7
:10154000200000002059454C4C4F572064657465BD
:101550006374656420200000205748495445206486
:1015600065746563746564202000000070B50446EE
:10157000049D601AEE1A7043561A90FBF6F0184458
:1015800070BD000010B58CB001210420FFF704F9F4
:1015900001210846FFF7E0F800F044F801A8FFF742
:1015A0001BF91F490198B0FBF1F0401E84B20806F8
:1015B000FFF748FBADF824400020ADF826004FF6B9
:1015C000FF70ADF828000020ADF82A0009A94FF0FF
:1015D0008040FFF7A9FC0020ADF81800ADF81A0014
:1015E0000120ADF81C000020ADF81E000520ADF86C
:1015F000200006A98007FFF725FC50218806FFF789
:101600005FFC8021C805FFF764FC04210807FFF791
:1016100069FC01218807FFF705FB0CB010BD000035
:1016200040420F0008B501210420FFF7B5F8F02073
:10163000ADF8000010208DF8030003208DF80200A3
:1016400069460748FEF74CFE0120ADF80000042073
:101650008DF8030069460248FEF742FE08BD00000F
:101660000008014038B504460D4600204FF0804187
:10167000888401218807FFF7D8FA00BF0121880775
:10168000FFF7D7FB0028F9D042F21070FFF7E8FC13
:1016900001218807FFF7C6FA00214FF08040FFF7CD
:1016A000C4FA00204FF080410090098F044A118055
:1016B0000846FF232A462146FFF758FF80B238BD6F
:1016C0003C000020E4160008000000206800000034
:1016D0006C0100084C17000868000020600600003C
:1016E0008801000800000000000000000000000069
:1016F00000010203040102030406070809020406AC
:1017000008000000F70000000000F44100000000A5
:1017100000000000000000000000000000000000C9
:1017200000000000000000000000000000000000B9
:101730000000000000A24A040000000000000000B9
:0C17400001020304060708090000000075
:0400000508000131BD
:00000001FF
