:020000040800F2
:10000000B0060020D5090008A1010008A3010008DE
:10001000A7010008AB010008AF01000800000000C4
:10002000000000000000000000000000B301000814
:10003000B501000800000000B7010008B901000880
:10004000EF090008EF090008EF090008EF090008B0
:10005000EF090008EF090008EF090008EF090008A0
:10006000EF090008EF090008EF090008EF09000890
:10007000EF090008EF090008EF090008EF09000880
:10008000EF090008EF090008EF090008EF09000870
:10009000EF090008EF090008EF090008EF09000860
:1000A000EF090008EF090008EF090008EF09000850
:1000B000EF090008EF090008EF090008EF09000840
:1000C000EF090008EF090008EF090008EF09000830
:1000D000EF090008EF090008EF090008EF09000820
:1000E000EF090008EF090008EF09000800F002F826
:1000F00000F047F80AA090E8000C82448344AAF17B
:100100000107DA4501D100F03CF8AFF2090EBAE878
:100110000F0013F0010F18BFFB1A43F0010318473B
:100120004C3400006C340000103A24BF78C878C109
:10013000FAD8520724BF30C830C144BF04680C60ED
:10014000704700000023002400250026103A28BF35
:1001500078C1FBD8520728BF30C148BF0B60704739
:10016000662903F0AD81002070471FB502F0BEF98B
:1001700004000020002102F0FFFEE0601FBD10B56A
:1001800010BD02F0AFFA1146FFF7EFFF00F006F9DD
:1001900002F0CDFA03B4FFF7F2FF03BC02F00EFB4E
:1001A000704700BFFEE700BFFEE700BFFEE700BFED
:1001B000FEE7704770477047704700000CB500209D
:1001C000019000906C48006840F480306A490860F3
:1001D00000BF6948006800F4003000900198401C9E
:1001E0000190009818B90198B0F5A06FF1D162485C
:1001F000006800F4003010B10120009001E0002000
:1002000000900098012843D15C48006840F010003D
:100210005A4908600846006820F003000860084654
:10022000006840F002000860534840685249486046
:100230000846406848600846406840F4806048606E
:100240000846406820F47C1048600846406840F446
:10025000E81048600846006840F08070086000BF01
:100260004548006800F000700028F9D04248406816
:1002700020F00300404948600846406840F0020012
:10028000486000BF3C48406800F00C000828F9D1E5
:100290000CBD10B5FFF792FF10BD10B536480068D1
:1002A00040F001003449086008464068344908407D
:1002B0003149486008460068324908402E490860C4
:1002C0000846006820F4802008600846406820F452
:1002D000FE0048604FF41F008860FFF7DAFF4FF020
:1002E00000602949086010BD10B5002100200022DF
:1002F000214B5B6803F00C0121B1042906D00829C9
:1003000028D107E0214B224C236027E01F4B204CD3
:10031000236023E0184B5B6803F47010164B5B6896
:1003200003F48032022303EB904022B9194B43437C
:10033000174C23600DE0104B5B6803F4003323B1CE
:10034000144B4343124C236003E0104B4343104CC7
:10035000236003E00D4B0E4C236000BF00BF064B33
:100360005B68C3F303130C4CE15C094B1B68CB4087
:10037000074C236010BD0000001002400020024026
:100380000000FFF8FFFFF6FE08ED00E000127A0023
:100390000000002000093D000400002008B50121F4
:1003A000102000F0A5FC10208DF803004002ADF8ED
:1003B000000003208DF802006946274800F05CFD2C
:1003C00000F0C8FA00F060F800F046FA00F0A7FA72
:1003D000012000F0AEFA832000F029FA1FA000F0FF
:1003E00090FAC02000F023FA1FA000F08AFA32E051
:1003F000C22000F01CFA1D48006802F0EBFF044622
:1004000022460B461AA11C4801F092FD17480068CD
:1004100002F0E0FF0646194A194B02F0F5FD0446CA
:1004200002F0C0FD1149086016480068401C1549DB
:1004300008604FF40051084800F0CBFD4FF4FA700B
:1004400000F0BFFA4FF40051034800F0C4FD4FF430
:10045000FA7000F0B6FACBE7001001406C65686FE7
:10046000616E6731373134007800000018000020D9
:1004700025302E32660000003C0000209A999999A0
:100480009999B93F1400002008B50121042000F01B
:100490002FFC14208DF803000320ADF800008DF828
:1004A000020069469F4800F0E7FC01219D4800F0EA
:1004B00090FD02219B4800F08CFD08BD10B5022183
:1004C000984800F086FD032000F06CFA0121954861
:1004D00000F07FFD032000F065FA0121914800F053
:1004E0007AFD032000F05EFA02218E4800F073FDD1
:1004F000032000F057FA10BD10B50121894800F023
:100500006AFD032000F04EFA0221864800F061FDEA
:10051000032000F047FA0121824800F05AFD032031
:1005200000F040FA10BD70B50446002620E004F04B
:10053000800020B101217B4800F04BFD03E0012148
:10054000784800F048FD032000F02CFA022175489D
:1005500000F03FFD052000F025FA0221714800F06F
:100560003AFD022000F01EFA6006040E701CC6B2AE
:10057000082EDCDB01216B4800F02BFD032000F08E
:1005800011FA0221674800F024FD032000F00AFA66
:100590000121644800F003FD08B1002500E00125B9
:1005A000022000F0FFF902215E4800F014FD052052
:1005B00000F0F8F9284670BD70B50546012159488C
:1005C00000F007FD032000F0EDF900261BE06006B7
:1005D000040E0221534800F0FCFC032000F0E2F975
:1005E0000121504800F0DBFC08B144F00104022076
:1005F00000F0D8F902214B4800F0EDFC052000F096
:10060000D1F9701CC6B2082EE1DB25B101214548A5
:1006100000F0E1FC03E00121424800F0DAFC032095
:1006200000F0C0F902213F4800F0D3FC052000F0A3
:10063000B9F902213B4800F0CEFC052000F0B2F9E8
:10064000204670BD2DE9F04107460D461646FFF7DE
:1006500035FF3846FFF767FF20B9FFF74DFF002051
:10066000BDE8F081002409E0285DFFF75CFF18B9C0
:10067000FFF742FF0020F3E7601CC4B2B442F3DB93
:10068000FFF73AFF0120EBE770B50446002523E0B1
:1006900004F0800070B10121224800F09AFC04208F
:1006A00000F08FF901211F4800F095FC012000F0B7
:1006B00088F90DE001211B4800F08BFC012000F0BF
:1006C00080F90121174800F086FC042000F079F938
:1006D0006006040E681CC5B2082DD9DB70BD2DE97B
:1006E000F04107460D461646FFF7E8FE3846FFF78D
:1006F0001AFF20B9FFF700FF0020BDE8F0810024B9
:1007000005E00120FFF758FF2855601CC4B2701E99
:10071000A042F6DC0020FFF74FFF2855FFF7ECFE64
:100720000120EAE70008014010B500240EE08748E8
:1007300000784010854908708548005D20B1084662
:10074000007840F080000870601CC4B2082CEEDB1A
:1007500001227E497E20FFF775FF10BD10B50446CB
:1007600004F0080018B101207949C87102E00020A6
:100770007749C87104F0040018B1012074498871E8
:1007800002E000207249887104F0020018B10120D3
:100790006F49487102E000206D49487104F0010082
:1007A00018B101206A49087102E000206849087107
:1007B000012067498870FFF7B7FF002064498870FF
:1007C000FFF7B2FF10BD08B50120614908714871FB
:1007D0008871C871FFF7A8FF00205D490870FFF716
:1007E000A3FF01205A494870FFF79EFF00BF012078
:1007F00057498870FFF798FF012269463F20FFF7AD
:100800006EFF002052498870FFF78EFF012050498B
:100810008870FFF789FF00204D498870FFF784FF3B
:100820009DF8000000F008000028E0D108BD10B5D8
:100830000446FFF7C8FF002045490870FFF774FF22
:10084000002043494870FFF76FFF2011FFF786FF34
:100850002046FFF783FF10BD10B5322000F0B1F83D
:10086000FFF712FE002404E0002039490855601CFF
:10087000C4B2082CF8DBFFF757FF0020344908709A
:10088000FFF752FF002032494870FFF74DFF032069
:10089000FFF764FF052000F094F80320FFF75EFFE8
:1008A000012000F08EF80320FFF758FF012000F030
:1008B00088F80220FFF752FF012000F082F828207C
:1008C000FFF7B5FF0C20FFF7B2FF0E20FFF7AFFFD9
:1008D0000120FFF7ACFF10BD10B50446FFF773FF12
:1008E00001201B490870FFF71FFF002018494870BE
:1008F000FFF71AFF2011FFF731FF2046FFF72EFF09
:1009000010BD10B5044607E0207820B114F8010BA3
:10091000FFF7E2FF00E000E0F6E700BF10BD10B512
:100920000120FFF784FF10BD10B5C020FFF77FFF47
:1009300010BD10B504461CB101200549C87002E085
:1009400000200349C870FFF7EFFE10BD250000200E
:100950001D0000200EB50121084600F0D6F9002048
:10096000ADF802004FF6FF70ADF804004720ADF877
:10097000000069464FF0804000F0A0FC012188078C
:1009800000F0F8FF0EBD10B500214FF0804001F0DF
:1009900085FA00BF4FF0804001F0A3FAB0F57A7FEE
:1009A000F8DB10BD10B5044600214FF0804001F087
:1009B00075FA00BF4FF0804001F093FAA042F9D3DE
:1009C00010BD10B5044602E0FFF7DDFF641E002CE9
:1009D000FAD110BD0948804709480047FEE7FEE705
:1009E000FEE7FEE7FEE7FEE7FEE7FEE7FEE7FEE7DF
:1009F00004480549054A064B704700009B02000861
:100A0000ED000008B0000020B0060020B002002079
:100A1000B0020020DF48006840F00100DD490860B6
:100A200008464068DC490840DA49486008460068E2
:100A3000DA490840D74908600846006820F4802059
:100A400008600846406820F4FE0048604FF41F002C
:100A500088607047CF49096821F48031CD4A116020
:100A60001146096821F480211160B0F5803F03D060
:100A7000B0F5802F0ED106E0C649096841F48031F7
:100A8000C44A116007E0C349096841F4A021C14A82
:100A9000116000E000BF00BF704710B501460022A2
:100AA000002300204A11012A02D1BA4C236806E033
:100AB000022A02D1B74C236A01E0B64C636A01F006
:100AC0001F02012494401C400CB1012000E00020D2
:100AD00010BD38B5002000900024002500BF312053
:100AE000FFF7DBFF05460098401C00900098B0F52A
:100AF000A06F01D0002DF2D03120FFF7CEFF08B15A
:100B0000012400E00024204638BD01460020A14A0F
:100B1000106820F0F80040EAC10010607047A0495A
:100B200008607047024600209A4B586820F47C10F9
:100B300042EA01031843974B58607047984908668A
:100B4000704701460020934A506820F00300084394
:100B5000506070478F48406800F00C0070470146B5
:100B600000208C4A506820F0F00008435060704725
:100B700001460020874A506820F4E0600843506036
:100B8000704701460020834A506820F4605040EAD4
:100B9000C1005060704729B17E4A527A02437D4BB2
:100BA0005A7204E07B4A527A82437A4B5A727047F7
:100BB0007B49D8310860704701460020754A50686B
:100BC00020F440400843506070470021714A2032B1
:100BD0001170704A82F82010012802D004280AD12E
:100BE00004E001216B4A2032117005E00521694AB9
:100BF0002032117000E000BF00BF704769490860F3
:100C000070476449096A0143624A11627047654945
:100C100044390860704730B50021002200240023C9
:100C20005C4D6D6805F00C0121B1042905D008293F
:100C300023D105E05C4D056022E05B4D05601FE0BF
:100C4000544D6D6805F47012524D6D6805F4803492
:100C5000022505EB92421CB9544D554305600BE04B
:100C60004C4D6D6805F400351DB1504D5543056080
:100C700002E04D4D5543056002E04B4D056000BF5D
:100C800000BF444D6D6805F0F0010909484D6B5CEB
:100C90000568DD4045603F4D6D6805F4E061090A77
:100CA000434D6B5C4568DD4085603A4D6D6805F4E9
:100CB0006051C90A3E4D6B5C4568DD40C560354DED
:100CC0006D6805F44041890B3A4D6B5CC568B5FB16
:100CD000F3F5056130BD29B12E4A526902432D4B0F
:100CE0005A6104E02B4A526982432A4B5A61704789
:100CF00029B1284A92690243264B9A6104E0254AA9
:100D000092698243234B9A61704729B1214AD26983
:100D10000243204BDA6104E01E4AD26982431D4B34
:100D2000DA61704729B11B4AD2680243194BDA6075
:100D300004E0184AD2688243164BDA60704729B142
:100D4000144A12690243134B1A6104E0114A1269F2
:100D50008243104B1A61704712494039086070474E
:100D60000F49C86470470B49C87170470948406A09
:100D700040F0807007494862704701460020054AEC
:100D800092680A400AB1012000E000207047014942
:100D900088727047001002400000FFF8FFFFF6FE67
:100DA000000042428004424200127A0000093D00E5
:100DB000260000203600002010B50446CC488442AE
:100DC00008D101210420FFF7ADFF00210420FFF727
:100DD000A9FF46E0C748844208D101210820FFF757
:100DE000A1FF00210820FFF79DFF3AE0C24884429E
:100DF00008D101211020FFF795FF00211020FFF7F7
:100E000091FF2EE0BD48844208D101212020FFF748
:100E100089FF00212020FFF785FF22E0B8488442A7
:100E200008D101214020FFF77DFF00214020FFF77E
:100E300079FF16E0B348844208D101218020FFF7F2
:100E400071FF00218020FFF76DFF0AE0AE48844269
:100E500007D101218015FFF765FF0021A015FFF7DD
:100E600061FF10BD10B501210846FFF75BFF0021AF
:100E70000120FFF757FF10BD2DE9F0410246002584
:100E80000026002000230024002791F803C00CF066
:100E90000F0591F803C00CF0100CBCF1000F03D04B
:100EA00091F802C04CEA050591F800C0BCF1000FB2
:100EB00031D0146800202BE04FF0010C0CFA00F345
:100EC000B1F800C00CEA03069E4220D183004FF027
:100ED0000F0C0CFA03F7BC4305FA03FC4CEA0404BC
:100EE00091F803C0BCF1280F06D14FF0010C0CFAA9
:100EF00000FCC2F814C00AE091F803C0BCF1480F2E
:100F000005D14FF0010C0CFA00FCC2F810C0401CD7
:100F10000828D1D31460B1F800C0BCF1FF0F34DD54
:100F2000546800202EE000F1080C4FF0010808FA88
:100F30000CF3B1F800C00CEA03069E4221D18300F5
:100F40004FF00F0C0CFA03F7BC4305FA03FC4CEA14
:100F5000040491F803C0BCF1280F05D100F1080C7E
:100F600008FA0CF8C2F8148091F803C0BCF1480FDD
:100F700007D100F1080C4FF0010808FA0CF8C2F88C
:100F80001080401C0828CED35460BDE8F0814FF695
:100F9000FF710180022181700421C17070470246F7
:100FA000002093680B400BB1012000E00020704747
:100FB0000146886880B2704702460020D3680B4023
:100FC0000BB1012000E0002070470146C86880B2E4
:100FD000704701617047416170470AB1016100E0EB
:100FE00041617047C16070474FF480320A438261AB
:100FF0008161826182698269704702460020434BA9
:1010000018684FF68073184040EA021008433F4BBF
:10101000186070473E49C8617047F0B50A46002322
:1010200000240021002500F00046B6F1004F02D157
:10103000364EF16901E0354E7168C0F3034583B265
:1010400000F44016B6F5401F08D121F070612F4E14
:10105000766826F070662D4F7E6012E000F48016F0
:10106000B6F5801F06D1032606FA05F4A14341F028
:10107000706106E0460D360103FA06F6B14341F011
:10108000706122B1460D360103FA06F6314300F0D5
:101090000046B6F1004F02D11C4EF16101E01B4E3B
:1010A0007160F0BD30B500228B071C0F0F2303FACF
:1010B00004F2164B08338C1053F824309343134C2E
:1010C00008348D1044F8253023468C1053F8243012
:1010D0008C07240F00FA04F423430C4C08348D10C1
:1010E00044F8253030BD0A49DC3108607047000003
:1010F00000080140000C01400010014000140140B4
:1011000000180140001C0140002001400000014087
:101110000000204210B50446FE48844208D1012157
:10112000C014FFF7FFFD0021E014FFF7FBFDC4E052
:10113000B4F1804F08D101210846FFF700FE0021DD
:101140000120FFF7FCFDB8E0F348844208D10121FB
:101150000220FFF7F4FD00210220FFF7F0FDACE0D4
:10116000EE48844208D101210420FFF7E8FD002168
:101170000420FFF7E4FDA0E0E948844208D1012102
:101180000820FFF7DCFD00210820FFF7D8FD94E0E0
:10119000E448844208D101211020FFF7D0FD00214E
:1011A0001020FFF7CCFD88E0DF48844208D1012100
:1011B0002020FFF7C4FD00212020FFF7C0FD7CE0C8
:1011C000DA48844208D101214014FFF7ABFD002129
:1011D0006014FFF7A7FD70E0D548844209D10121D2
:1011E000C804FFF79FFD00214FF40020FFF79AFD90
:1011F00063E0D048844209D101210805FFF792FD40
:1012000000214FF48010FFF78DFD56E0CA4884425C
:1012100009D101214805FFF785FD00214FF4001099
:10122000FFF780FD49E0C548844208D101214020F4
:10123000FFF785FD00214020FFF781FD3DE0C0481C
:10124000844208D101218020FFF779FD0021802010
:10125000FFF775FD31E0BB48844208D101218015BC
:10126000FFF76DFD0021A015FFF769FD25E0B648E9
:10127000844209D101210804FFF754FD00214FF4F5
:101280008030FFF74FFD18E0B048844209D10121BA
:101290004804FFF747FD00214FF40030FFF742FDFF
:1012A0000BE0AB48844208D101218804FFF73AFDE6
:1012B00000214FF48020FFF735FD10BD0022028889
:1012C000944B98420ED0994B98420BD0B0F1804F7E
:1012D00008D0914B984205D0904B984202D0904B49
:1012E000984204D14FF68F731A404B881A438D4BA6
:1012F000984207D08C4B984204D04FF6FF431A40D7
:10130000CB881A4302808B8883850B880385814BA9
:1013100098420BD0854B984208D08B4B984205D011
:101320008A4B984202D08A4B984201D10B7A0386AD
:1013300001238382704770B5002400220023058CAE
:101340004FF6FE7635400584028C8388048B4FF679
:101350008F752C40B51E2C400D882C43751E2A40DD
:101360000D892A434D882A436A4DA8420BD06F4D00
:10137000A84208D0744DA84205D0744DA84202D0AE
:10138000734DA84213D14FF6F7752A404D892A4371
:101390004FF6FB752A408D882A434FF6FF652B4098
:1013A0004FF6FF552B408D892B43CD892B438380EE
:1013B0000483CD888586028470BD70B50024002228
:1013C0000023058C4FF6EF7635400584028C838828
:1013D000048B48F6FF752C404FF6FF452C400D88D6
:1013E0004FF6FF7606EA05252C434FF6DF752A40B7
:1013F0000D8906EA05152A434D8806EA05152A4394
:10140000444DA84202D0494DA8421DD14FF67F75E8
:101410002A404D894FF6FF7606EA05152A434FF616
:10142000BF752A408D8806EA05152A434FF6FF3519
:101430002B404FF2FF752B408D8906EA85052B4323
:10144000CD8906EA85052B4383800483CD880587F3
:10145000028470BD70B5002400220023058C4FF675
:10146000FF6635400584028C8388848B4FF68F7528
:101470002C404FF6FC752C400D882C434FF6FF5541
:101480002A400D894FF6FF7606EA05252A434D8846
:1014900006EA05252A431F4DA84202D0234DA84243
:1014A0001DD14FF2FF752A404D894FF6FF7606EAAF
:1014B00005252A434FF6FF352A408D8806EA052583
:1014C0002A434EF6FF752B404DF6FF752B408D8954
:1014D00006EA05152B43CD8906EA05152B438380C3
:1014E0008483CD888587028470BD70B50022002377
:1014F0000024058C4EF6FF7635400584038C8488E5
:10150000828B48F6FF752A404FF6FF452A400D882A
:1015100020E00000002C01400004004000080040D2
:10152000000C004000100040001400400034014056
:10153000004C0140005001400054014000180040A0
:10154000001C0040002000400040014000440140D9
:10155000004801404FF6FF7606EA05252A434DF67E
:10156000FF752B400D8906EA05352B434D8806EAA9
:1015700005352B43FA4DA84202D0FA4DA84208D1B6
:101580004BF6FF752C408D894FF6FF7606EA8515E0
:101590002C4384808283CD88A0F84050038470BDA2
:1015A000828B4FF2FF331A408283828B4FF6FF7398
:1015B00003EA01231A4382837047F0B50C461546AF
:1015C000002200210026078C4EF6FF7C07EA0C075C
:1015D0000784828B018C4FF6FF7707EA043640F6CA
:1015E000FF473A404FF6FF7707EA05273A434FF6A1
:1015F000FF7707EA03373A43D94FB8420ED0D94FA5
:10160000B8420BD0B0F1804F08D0D74FB84205D0C8
:10161000D64FB84202D0D64FB84206D14DF6FF772A
:10162000394046F48057394305E047F6FF573940C3
:1016300044F48057394382830184F0BD828B4FF696
:10164000F3731A408283828B0A4382837047F0B51A
:101650000C461546002200210026078C4FF6FF6C31
:1016600007EA0C070784828B018C4FF6FF7707EAA5
:1016700004264FF60C773A404FF6FF7707EA031738
:101680002F433A43B64FB8420ED0B64FB8420BD0B4
:10169000B0F1804F08D0B44FB84205D0B34FB84234
:1016A00002D0B34FB84206D14FF6FF57394046F447
:1016B0008077394305E04FF2FF57394044F4807793
:1016C000394382830184F0BD028B4FF2FF331A400D
:1016D0000283028B4FF6FF7303EA01231A4302834E
:1016E0007047F0B50C461546002200210026078CF5
:1016F0004FF6EF7C07EA0C070784028B018C4FF64C
:10170000FF7707EA041640F6FF473A404FF6FF77A7
:1017100007EA03373A434FF6FF7707EA05273A43CC
:101720008F4FB8420ED08F4FB8420BD0B0F1804FE0
:1017300008D08D4FB84205D08C4FB84202D08C4FA4
:10174000B84206D14FF6DF77394046F010073943EB
:1017500005E04FF65F77394044F0100739430283C4
:101760000184F0BD028B4FF6F3731A400283028BA3
:101770000A4302837047F0B50C461546002200214B
:10178000068C4FF6FE773E400684028B018C4FF6A6
:101790000C7632407E1C06EA03162E433243704E0E
:1017A000B0420ED06F4EB0420BD0B0F1804F08D097
:1017B0006D4EB04205D06D4EB04202D06C4EB0427C
:1017C00006D14FF6FD76314044F00106314305E085
:1017D0004FF6F576314044F001063143028301842F
:1017E000F0BD70B505460C465D4885420ED05D489B
:1017F00085420BD0B5F1804F08D05B48854205D0BB
:101800005A48854202D05A48854200D100E000BFC4
:10181000208850B92389A28861882846FFF7ABFF4A
:10182000E1882846FFF79EFF25E0208804280AD19A
:101830002389A28861882846FFF753FFE18828465C
:10184000FFF742FF17E0208808280AD12389A288E1
:1018500061882846FFF7FBFEE1882846FFF7EEFE89
:1018600009E02389A28861882846FFF7A6FEE1885F
:101870002846FFF795FE70BD2DE9F04105460C4660
:1018800000260127608808B9022600E00026A0880B
:10189000012801D1022700E001272088A0B923896F
:1018A000A28861882846FFF766FFE1882846FFF78F
:1018B00059FF23893A4631462846FFF712FFE1884F
:1018C0002846FFF701FF13E02389A2886188284694
:1018D000FFF707FFE1882846FFF7F6FE23893A461F
:1018E00031462846FFF747FFE1882846FFF73AFFD1
:1018F000BDE8F0810A884B881A438B881A43CB884D
:101900001A430B891A434B891A438B891A43A0F84F
:10191000442070474FF6FF71818000210180C18013
:101920004180017270470021018041808180C18027
:10193000018141818181C181704700210180418005
:10194000012181800021C180018170470021018037
:1019500041808180C1800181418181817047000087
:10196000002C014000340140000400400008004009
:10197000000C004021B1028842F00102028004E024
:1019800002884FF6FE731A400280704731B1B0F8FA
:10199000442042F40042A0F8442005E0B0F844207E
:1019A000C2F30E02A0F8442070471AB183890B439A
:1019B000838102E083898B438381704781827047F2
:1019C00041EA0203A0F8483070471AB183890B43FB
:1019D000838102E083898B438381704701894FF6BD
:1019E000F8721140018170470A46002101894FF6C3
:1019F0008F73194011430181704730B504460D467D
:101A000029462046FFF7F0FF208940F0070020819B
:101A100030BD2DE9F04104460D4616461F46602DA7
:101A200006D13B46012231462046FFF75AFE05E02B
:101A30003B46012231462046FFF79DFE29462046BF
:101A4000FFF7D2FF208940F007002081BDE8F08138
:101A500030B50C4600210189C9B24FF6FF7505EA81
:101A60000325154325432943018130BD2DE9F0416C
:101A700005460E4617469846002443463A463146E8
:101A80002846FFF7E5FF2C894FF6F870044044F034
:101A900007044FF68F70044044F070042C81BDE8B9
:101AA000F081F0B504460D4616461F463B463246C9
:101AB00029462046FFF7CCFF208940F48040208152
:101AC000F0BD0185828270470A46002101884FF6E9
:101AD0008F731940114301807047F0B50C461546CD
:101AE0001E460021002200230189028B038C4FF641
:101AF000F877394021434FF6FC473A4040F201174E
:101B00003A434FF6DD773B404FF6FF7707EA06177B
:101B10002F433B43018102830384F0BD0A46002129
:101B2000018B4FF68F7319401143018370470A46AA
:101B30000021018B48F6FF7319404FF6FF7303EA4B
:101B400002231943018370470A460021818B4FF617
:101B50008F7319401143818370470A460021818B9E
:101B600048F6FF7319404FF6FF7303EA0223194347
:101B70008183704721B1028842F08002028004E034
:101B800002884FF67F731A400280704721B1828825
:101B900042F00402828004E082884FF6FB731A4010
:101BA0008280704721B1828842F00802828004E07E
:101BB00082884FF6F7731A408280704721B182887D
:101BC00042F00102828004E082884FF6FE731A40E0
:101BD000828070470A460021018B4FF6F773194047
:101BE0001143018370470A460021018B4FF2FF73B6
:101BF00019404FF6FF7303EA02231943018370472C
:101C00000A460021818B4FF6F773194011438183F7
:101C100070470A460021818B4FF2FF7319404FF63F
:101C2000FF7303EA02231943818370470A460021A8
:101C3000018B4FF6FB7319401143018370470A462D
:101C40000021018B4FF6FF3319404FF6FF7303EA73
:101C500002231943018370470A460021818B4FF606
:101C6000FB7319401143818370470A460021818B21
:101C70004FF6FF3319404FF6FF7303EA022319436F
:101C8000818370470A460021018B4FF67F7319400C
:101C90001143018370470A460021018BC1F30E01F5
:101CA0004FF6FF7303EA02231943018370470A4684
:101CB0000021818B4FF67F73194011438183704758
:101CC0000A460021818BC1F30E014FF6FF7303EA30
:101CD00002231943818370470A460021018C4FF685
:101CE000FD7319401143018470470A460021018C9D
:101CF0004FF6F77319401143018470470A460021DB
:101D0000018C4FF6DF7319404FF6FF7303EA02139D
:101D10001943018470470A460021018C4FF67F73F6
:101D200019404FF6FF7303EA021319430184704709
:101D30000A460021018C4FF6FF5319404FF6FF73FE
:101D400003EA02231943018470470A460021018CEB
:101D50004FF2FF7319404FF6FF7303EA0223194352
:101D6000018470470A460021018C4DF6FF7319402B
:101D70004FF6FF7303EA023319430184704730B50D
:101D8000002301248C40A3B2048C9C430484048C63
:101D900002FA01F5ADB22C43048430BD30B5002306
:101DA00004248C40A3B2048C9C430484048C02FA67
:101DB00001F5ADB22C43048430BD70B5034600205C
:101DC00000241846183001258D40ACB21D8CA54367
:101DD0001D8409B1082909D100EB6100056825F0CF
:101DE000700505600568154305600EE00D1FC5F31D
:101DF0004E052844056825F4E045056005684FF662
:101E0000FF7606EA02263543056070BD21B10288DF
:101E100042F00202028004E002884FF6FD731A408D
:101E20000280704721B1028842F00402028004E07F
:101E300002884FF6FB731A400280704721B18288F6
:101E400042F08002828004E082884FF67F731A405D
:101E50008280704702884FF6F7731A40028002882A
:101E60000A430280704782884FF68F731A4082803F
:101E700082880A438280704702894FF6F8731A40BD
:101E8000028102890A430281704702894FF67F73FB
:101E90001A40028102890A43028170478184704797
:101EA00081857047818670470187704781877047B9
:101EB000A0F84010704702884FF6FF431A40028096
:101EC00002880A43028070470146888E70470146A7
:101ED000088F70470146888F70470146B1F840006F
:101EE00070470146888C70470146088D704702464E
:101EF0000020138A0B400BB1012000E00020704746
:101F0000CA430282704730B50246002000230024F5
:101F1000158A05EA0103958905EA010413B10CB19C
:101F2000012000E0002030BDCA430282704700005B
:101F30000FB41CB5074B06AA7B4469460090059870
:101F400000F0BBFA0020694600F0CAFA1CBC5DF83C
:101F500014FB0000A50500002DE9F05F894604464A
:101F60004FF0000ADFF824B1FB44C0F820A020465F
:101F7000E168884700287DD0252806D0D4E90121D2
:101F80009047206A401C2062F1E700255F4620460A
:101F9000E16888472028064607DB312E05D2B819AC
:101FA00010F8200C08B10543F1E7A80701D525F08A
:101FB0000405C4F81CA00027C4F818A02A2E09D0D4
:101FC000304600F0D1FF38B304EB8708303EC8F844
:101FD000186019E059F8041B204604EB8702916150
:101FE000E1688847012F064618D1E069002820DA09
:101FF00025F020051DE0D8F8180000EB800006EB66
:1020000040003038C8F818002046E1688847064686
:1020100000F0AAFF0028EED1012F0AD02E2E08D101
:102020002046E16888477F1C0646022F45F02005C0
:10203000C4DBA069002803DA404245F00105A06135
:10204000E80701D025F01005A6B1A6F14100192836
:1020500002D8203645F400654A46314620462560C0
:102060004D46FEF77DF860B1012807D0ED1D25F043
:10207000070000E007E000F1080978E705F104092E
:1020800075E730467AE7206ABDE8F09F58150000F2
:1020900070477047704770472DE9FF4F0C461E464A
:1020A0004FF0FF378BB0D2E90001DDF860800A9075
:1020B0008A46C1F30A5505B93D46002108464FF04E
:1020C0000000BAF1000F00F4400005DA00EB8000D8
:1020D0004FF4400101EA50004FEA9059B9F1010F65
:1020E00000DDB9460A9850EA4A000ED044F6105076
:1020F000A5F2FF3545432F14B8F1000F1ED07542ED
:10210000291E1EDDC9F100021CE0B8F1010F4FF0DD
:10211000000001D0302103E0F24305E02154401CCF
:10212000B042FBDB30460022002121540B99C1F85C
:102130000880C1E900200FB0BDE8F08FBD1B6D1C09
:10214000DEE74A4600DA694206A800F059FA06AB13
:1021500093E8070003AB83E8070050460A9900F0B4
:1021600034FB8DE80700A0F500501F38009003985D
:10217000002D09DD42F21F014A46084403A90390DD
:10218000684600F093FD08E0A0F500504A461F386D
:1021900003A90390684600F09DFD8DE80700000448
:1021A000000C03D04FF0FF30410800E01046B8F1BA
:1021B000000F03D00022009215461EE0751E05D4C4
:1021C00000F098F9303262556D1EF9D5B346012200
:1021D000084302D000227F1C04E02078302801D17F
:1021E00000227F1E002A099786D01DE0112D07DAF4
:1021F00000F080F9303262556D1C50EA0102F5D1D1
:10220000084302D00098C8B10EE00021681E05E026
:10221000235C625C63542254401E491C8142F7DBFC
:10222000AB46A81B401E0990002004F80B000B9839
:10223000099AC0F80880C0E9002B7CE711264FF00E
:10224000000859E72DE9F04F88460446D21D22F0D8
:10225000070191B0D1E90001CDE90A0100F070FE5B
:1022600002460B98C00F01D02D2007E0206881079F
:1022700001D52B2002E0202101EAC000032A0990A9
:1022800001D0072A05DB03464146204600F078F9D5
:102290000BE12078800601D5E06900E00620B8F166
:1022A000650F814606D0B8F1660F18D0B8F1670FF8
:1022B00070D131E00020B9F1110F009001DB112342
:1022C00001E009F101030AAA01A90CA8FFF7E4FE45
:1022D000DDE90C70002609F10105834647E0012085
:1022E0004B4600904FF000470AAA01A90CA8FFF73F
:1022F000D3FEDDE90DB00C995D46002610B909F159
:1023000001000D18B9EB050003D4C0F1FF3609F147
:102310000105A5EB09002BE0B9F1010F01DA4FF03F
:1023200001090020B9F1110F0090484601DD112389
:1023300000E003460AAA01A90CA8FFF7ADFEDDE9FB
:102340000C704D4600268346207800070AD4AB4522
:1023500000DA5D4601A8012D04DD411911F8011CC8
:10236000302907D04F4502DA17F1040F04DA0120B3
:1023700082460FE06D1EEEE7002F02DCED1B3E44AF
:1023800003E0781CA84200DD7D1CB81B00F1010AA7
:102390004FF000472078000703D4AA4501DB4FF037
:1023A000FF3A0021B7F1004F0DF143088DF84310BB
:1023B00024D002202B23002F01DA7F422D230A2173
:1023C000021EA0F1010000DC5FB197FBF1FC97FB5E
:1023D000F1F201FB1C7C17460CF1300C08F801CD22
:1023E000EEE7A8F1010003702188090501D5452118
:1023F00000E06521A0F1010800F8011C09980FA96F
:10240000A1EB0807FF1D00B10120411901EBEA70A3
:10241000A1693844081A401EA0612078C00602D481
:102420002046AFF30080099828B1D4E901219047F4
:10243000206A401C20622078C00622D52046AFF3D7
:1024400000801EE0002E04DBB34502DD01A8805DA4
:1024500000E03020D4E901219047206A401C20622E
:10246000761CAAF101005FEA000A0AD100F03EF8EA
:10247000C0680168405CD4E901219047206A401C93
:102480002062281EA5F10105DCDC07E0D4E901216A
:1024900018F8010B9047206A401C2062381EA7F1F3
:1024A0000107F3DC2046AFF30080032011B043E6C0
:1024B00001694A1C02610878704700B58FB0CDE908
:1024C00001310021059105497944CDE903101146F8
:1024D0006846FFF741FD0FB000BD0000E5FFFFFFBC
:1024E0000A6802F8010B0A60704700000048704754
:1024F0006C00002030B5B0F10A024FEA900E71F185
:1025000000034EEA817EB0EB0E0061EB91014FEAD1
:10251000101E4EEA017E10EB0E0041EB11114FEA46
:10252000102E4EEA016E10EB0E0041EB11214FEA26
:10253000104E4EEA014E10EB0E0041EB11414018D7
:1025400041F100014FEAD00040EA41704FEAD10169
:1025500010EB80054FEA810444EA907444EB0104D7
:102560006D1944EB0404521BA3414FF0000348BF14
:102570000A3200D530BD401C41F1000130BD0000E1
:102580002DE9F0411F46044603260168072A01F49D
:10259000006004DB08B116A505E016A503E008B14C
:1025A00015A500E015A521F010002060A069C01E4F
:1025B000A0610FB1401EA0612046AFF300804FB173
:1025C000D4E9012138469047206A401C2062C01C93
:1025D000206206E0206AFAE7D4E9012115F8010B30
:1025E0009047761EF8D22046AFF30080BDE8F08118
:1025F0004E414E006E616E00494E4600696E6600A7
:102600002DE9F047814616468AB0334878440DC814
:102610008DE80D0030487844801C03AC0DC884E878
:102620000D0041F69B300844372190FBF1F290FBFE
:10263000F1F5A5F1800501FB12041B3C02D56442B3
:10264000012000E00020DFF890A080460027FA4437
:10265000AAF1BE0A0DE0E00709D03246684607EB52
:1026600047010AEB810100F035FB8DE8070064109B
:102670007F1C002CEFD1184F7F44AC3F18E0E807D7
:1026800014D007EB04100DF1180A90E80E008AE848
:102690000E00C068F04201D198190890324606A990
:1026A00003A800F017FB03AB83E807006D10641C60
:1026B000002DE4D132466946B8F1000F03A802D0DC
:1026C00000F0F4FA01E000F005FBC9E90001C9F8E7
:1026D00008200AB0BDE8F087440F000000487047AA
:1026E0004C0000207546FFF7F9FFAE46050069462D
:1026F000534620F00700854618B020B5FEF778F95C
:10270000BDE820404FF000064FF000074FF00008F2
:102710004FF0000B21F00701AC46ACE8C009ACE873
:10272000C009ACE8C009ACE8C0098D467047044652
:10273000AFF300802046FDF72DFD00004FF0013C77
:1027400050F8042B51F8043B9A4221D1A2EB0C0320
:10275000934313EACC1317D150F8042B51F8043BE0
:102760009A4215D1A2EB0C03934313EACC130BD17D
:1027700050F8042B51F8043B9A4209D1A2EB0C0308
:10278000934313EACC13DBD04FF00000704700BF37
:10279000D01A01BAB1FA81F101F0180122FA01F060
:1027A000CB40C1F12001DBB2C0B2C01A2CFA01F358
:1027B000D11A914311EAC311E6D17047014918209B
:1027C000ABBEFEE72600020070475FEA400C08BF80
:1027D00091F0000F4FEA8C234FEAC12243EA515196
:1027E0004FEA1C5018BF00F5F0404FEA300018BF08
:1027F00041F000415FEA6C5C00F02980BCF1FF3FD2
:1028000008BF40F080407047130C06BF12044FF021
:10281000100C4FF0000C130E04BF12020CF1080C48
:10282000130F04BF12010CF1040C930F04BF9200AC
:102830000CF1020CD30F04BF52000CF1010C114635
:102840004FF00002A0F11F00A0EB0C00704711F048
:10285000004F08BF704731F000413FF4D5AF0B0C7B
:1028600006BF09044FF0100C4FF0000C0B0E04BF14
:1028700009020CF1080C0B0F04BF09010CF1040C48
:102880008B0F04BF89000CF1020CCB0F04BF490071
:102890000CF1010CCCF12003A0EB0C0022FA03F3A5
:1028A00002FA0CF241EA030100F10100704720F046
:1028B0007F4C80EA030023F07F47ACEB070303F56E
:1028C0007C5300F0004003F1FF032DE980494FEAFB
:1028D000154B09B44FEA144325EA0B4E24EA03488A
:1028E0000FF2042606EB132749083E785FEA32020E
:1028F00003FB0667C7F5000707FB06F64FEA5437E8
:102900004FEAD64606F1020607FB066CCCF1005CE6
:102910004FEA1C472CEA074C07FB06F40CFB06F5B4
:1029200004EB15464FEA961634BF00204FF00040E6
:102930004FEAD13706FB07FC4FEA1C4C0CFB0BF7A8
:10294000D21B03FB0CF761EB07010CFB0EF7B0EB9E
:10295000074072EB17420CFB08F734BFA2EB0742AB
:10296000B2EB074261EB17414FEA0C444FEA910783
:1029700006FB07FC4FEA1C4C0CFB0BF7B0EBC74007
:1029800072EB573203FB0CF734BFA2EBC742B2EB3A
:10299000C74261EB57310CFB0EF7B0EBC70072EB8F
:1029A00057720CFB08F734BFA2EBC702B2EBC702A9
:1029B00061EB5771039F4FEA816141EA921104EB89
:1029C000CC044FEAD1374FEA826206FB07FC42EAA9
:1029D00090124FEA80604FEA1C4C0CFB0BF7D21BA5
:1029E00003FB0CF761EB07010CFB0EF7B0EB0740A4
:1029F00072EB17420CFB08F734BFA2EB0742B2EBB5
:102A0000074261EB17414FEA8C554FEA910704EBFF
:102A10009C2406FB07FC4FEA1C4C0CFB0BF7B0EBAD
:102A2000C74072EB573203FB0CF734BFA2EBC7422F
:102A3000B2EBC74261EB57310CFB0EF7B0EBC700AE
:102A400072EB57720CFB08F734BFA2EBC702B2EB74
:102A5000C70261EB577115EB4C254FEA816141EAE2
:102A600092114FEA82624FEAD13742EA901206FB96
:102A700007FC44F100044FEA80604FEA1C4C0CFB59
:102A80000BF7D21B03FB0CF761EB07010CFB0EF7F6
:102A9000B0EB074072EB17420CFB08F734BFA2EB18
:102AA0000742B2EB074261EB174115EB1C154FEAE9
:102AB000813141EA92414FEA823242EA90424FEA42
:102AC00080304FEA0C7644F1000448EA03434EEAB2
:102AD0000B484FF0000EB2EB080C71EB030724BF5C
:102AE000624639464EEB0E0E4FF0000B0018524175
:102AF00049414BEB0B0BB2EB080C71EB03077BF17D
:102B0000000B24BF624639464EEB0E0E4FF0000B11
:102B10000018524149414BEB0B0BB2EB080C71EB27
:102B200003077BF1000B24BF624639464EEB0E0EC5
:102B300051EA020718BF46F0010616EB0E7655F172
:102B4000000254F1000103D5BDE88901BDE8008809
:102B5000BDE88901BDE80048B619524141EB0101C9
:102B6000A3F10103704780807F7E7D7C7B7A79783A
:102B7000777676757473727171706F6E6E6D6C6C42
:102B80006B6A6A69686867666665646463636261E4
:102B90006160605F5F5E5E5D5D5C5C5B5B5A5A5965
:102BA00059585857575656555555545453535252D1
:102BB0005251515050504F4F4F4E4E4D4D4D4C4C29
:102BC0004C4B4B4B4A4A4A49494948484847474772
:102BD00047464646454545444444444343434342AF
:102BE000424242414141002B26D4770021D01CB5FE
:102BF0004FEA370703B44FF010004FF010014FF0C9
:102C000000000FBCBDE810400BF1010BBBF1010F40
:102C100008BF5FEA170722BF12F1010211F101019B
:102C20004FF0004143F1000300F0004043EA000090
:102C30007047F9D35708DAE746EA064613F1400F22
:102C40004FEA16461FDD13F1200FDFBF16430A4679
:102C5000002120335B42C8D0C3F1200746EA064674
:102C600002FA07F74FEA164646EA0706C3F12007BD
:102C700022FA03F201FA07F721FA03F14FF00003F9
:102C800042EA0702B1E746EA020646EA06464FEA8A
:102C9000164646EA0106BCBF46EA0646360C4FF029
:102CA00000034FF000024FF000019EE72DE9C048FD
:102CB000934630B491E8380007C831EA400C48BF69
:102CC00034EA430C03D5FFF7F2FDFFF78CFFF0BCAD
:102CD000BDE800882DE9C048934630B491E838003B
:102CE00007C810F0804F08BF13F0804F03D100F0E9
:102CF00005F8FFF778FFF0BCBDE8008820F07F47BB
:102D000080EA030023F07F4C07EB0C03A3F57C5310
:102D100000F00040A3F1FE0392F0000F00F0B3803A
:102D200095F0000F00F077802DE901494FEA11403E
:102D30004FEA144621EA004800FB06FC24EA064755
:102D400008FB06F607FB08F800FB07F718EB064838
:102D50004CEB164C4FEA124B18EB07484FEA15465E
:102D60004CEB174022EA0B4E0BFB06FC25EA06470C
:102D70000EFB06F607FB0EFE0BFB07F71EEB064EDF
:102D80004CEB164C4FF000061EEB074E4CEB174B6E
:102D900018EB0B0840F1000018EB0E0B58EB000885
:102DA00040F100008F1A4FF000013CBFC943661B81
:102DB00014BFB5EB040C00213CBFC943F61B4FEA1E
:102DC00017444EEA8E0E27EA04454FEA1C4704FBDF
:102DD00007622CEA074C05FB07F70CFB05F604FB22
:102DE0000CFC16EB074642EB174216EB0C4642EB87
:102DF0001C421BEB060658EB0202414146EA9E06C6
:102E000001D5BDE80189B619524141EB0101A3F199
:102E10000103BDE801894FEA14454FEA114724EA4E
:102E2000054621EA074C05FB07F406FB07F70CFBF8
:102E300006F105FB0CFC11EB074144EB17444FEA8C
:102E4000124711EB0C4144EB1C4422EA074C05FBF2
:102E500007F206FB07F70CFB06F605FB0CFC16EB6E
:102E6000074642EB174216EB0C4642EB1C456A182C
:102E700054F1000148BF7047B619524141EB0101BE
:102E8000A3F10103704795F0000F37D04FEA1142CC
:102E90004FEA144721EA024624EA074C02FB07F1F5
:102EA00006FB07F70CFB06F402FB0CFC14EB0744D3
:102EB00041EB17414FEA154714EB0C4441EB1C4121
:102EC00025EA074C02FB07F506FB07F70CFB06F6A5
:102ED00002FB0CFC16EB074645EB174516EB0C46C0
:102EE00045EB1C42121951F1000148BF7047B61959
:102EF000524141EB0101A3F1010370474FEA144530
:102F00004FEA114724EA054621EA074C05FB07F181
:102F100006FB07F70CFB06F24FF0000605FB0CFC66
:102F200012EB074241EB174112EB0C4251EB1C41F3
:102F300048BF7047921841EB0101A3F101037047AC
:102F4000490050EAC12018BF04204A0D18BF40F0C4
:102F5000010040F2FF72B2EB515F08BF40F0020087
:102F6000012808BF0520704730380A2801D2012007
:102F7000704700207047000010B500290AD008787B
:102F8000002807D005487844FFF7D8FB002801D077
:102F9000002010BD0248784410BD00000606000065
:102FA000FE05000021F00042A2F16052B2F5801F40
:102FB00001F0004328BFD2F17F6C0BD95FEA001CFF
:102FC00043EAC20242EB507018BF704728BF20F09E
:102FD00001007047B2F5801FBCBF184670474FEA2A
:102FE000410C1CF5001F02D2084600F064BA70B50F
:102FF00000F0B2F800000089FFF7F6BF4FF0004084
:10300000A0F580007047000010B591EA030F48BF9B
:1030100083F0004300F1FC80841A71EB030C05D2AD
:10302000121943EB0C03001B61EB0C01DFF824E1E8
:103030004FEA1154A4EB135C1EEA430F18BF9EEA3B
:10304000445F73D023EA0E03DCF1200E21EA045121
:1030500043F4801332D322FA0CFE10EB0E0023FA55
:103060000CFE41EB0E01CCF1200E03FA0EFE10EB2C
:103070000E0051F10001B1F5801FCCF1200E32D2CB
:1030800001EB045112FA0EF2BDE8104058BF704730
:10309000401C38BF5FEA420218BF7047002814BFC7
:1030A00020F0010041F100014FEA410313F5001F38
:1030B00038BF7047A1F1C04100F09CB8012A43EB32
:1030C0000302ACF1200CDCF11F0E32BF4FF0000EFA
:1030D00023FA0CF310EB030041EB0451B4EB115F46
:1030E000D0D0A1EB045101F5801149085FEA30000E
:1030F00001EB04510ED350F1000038BF12FA0EFE5E
:1031000008D1BDE81040C9E7401C38BF5FEA420261
:10311000CAD1C3E7BDE810404FEA410313F5001FD1
:1031200038BF7047A1F1C04100F064B89EEA445F27
:1031300008D011EA5E0FBDE8104004BF01F0004165
:1031400000207047BDE8104070B500F005F800BFE2
:1031500064FBBE3E0000E0FF0EF1020E2EF0030EF7
:103160005EF8046B364205D4012A43EB030515F5DE
:10317000001F12D8012841EB010C1CF5001F0CD8D0
:103180000ED14FEAD17C15F5001F0CEB4C0C0CF165
:10319000020C08BF4CEBD37C04E04FF0080C01E0BC
:1031A0004FEAD37C0CEB4C0526FA05F606F0070631
:1031B000B6F1040C06D20EEB860CBDE870404CF064
:1031C000010C6047DFE80CF0090B02024FF00041F0
:1031D0004FF00000A1F5002170BD194610460128EE
:1031E00051EB010418BFD4F5001484BF002001F096
:1031F000004170BD0808A0F500114FEA3101704789
:1032000010B591EA030F48BF83F000433FF504AFC8
:10321000841A71EB030C07D212198CF0004C43EBAB
:103220000C03001B61EB0C01DFF8A4E14FEA115421
:10323000A4EB135C1EEA430F18BF9EEA445F00F044
:10324000B08023EA6E03524221EA0451C3EB6E03BD
:1032500038BF5B1EDCF1200E25D322FA0CFE10EBEA
:103260000E0043FA0CFE41EB0E01CCF1200E03FAE6
:103270000EFE10EB0E0051F10001CCF1200E29D40E
:1032800012FA0EF201EB0451BDE8104058BF70472E
:10329000401C1CBFB2F1004F704700280CBF491CF6
:1032A00020F00100704712EB020E43EB030218BF3F
:1032B0004FF0010E4EEA4202ACF1200CDCF11E0E82
:1032C00054D943FA0CFE10EB0E0051F1FF31CCF152
:1032D0001E0ED5D50EF1010E12FA0EFE404141EB45
:1032E000010101EB445C5FEA5C5C10D910EBDE701D
:1032F00001EB045138BFBEF1004FBDE8104018BFCC
:10330000704700280CBF491C20F00100704730D2E4
:103310004FEAD42C11F5001124F400641BD0B1FA4B
:1033200081F20B3AA41AA41ED2F12003914030FA84
:1033300003F31943904001EBCC71002C01EB0451D5
:10334000BDE81040A8BF704701F1C0414FF0000038
:1033500001F000417047B0FA80F310FA03F100D198
:1033600010BDE41A173C4805C90AE4E701EB045113
:1033700010BD491001EB0451BDE810404FEA300088
:1033800002E04FF0000170474A0008BF0042F8D049
:10339000B2F5001F28BF704701F000414FF0000058
:1033A00070479EEA445F07D011EA5E0FBDE8104007
:1033B00004BF002100207047BDE8104070B5FFF742
:1033C000CBFE00BF40DFF63E83F000411046704761
:1033D0000000E0FF43004FEAD30C4FEA3C0C4340AF
:1033E0001FBF40070CF1605113F0FE4F70471CF0F7
:1033F000006F03D100200CF0004170470CF0004337
:1034000043EA507010B540EACC0000F00EF800BF5F
:10341000000000924FEA0001FFF7ECBE4FF00041C0
:103420004FF00000A1F5002170470EF1020E2EF0C2
:10343000030E5EF8044B244204D44FEA4102B2F179
:103440007F4F11D84FEA4003B3F17F4F0CD80ED114
:103450004FEAD07CB2F17F4F0CEB4C0C0CF1020C1C
:1034600008BF4CEBD17C04E04FF0080C01E04FEAC0
:10347000D17C0CEB4C0324FA03F404F00704B4F100
:10348000040C06D20EEB840CBDE810404CF0010C8D
:103490006047DFE80CF0070802024FF00040A0F59B
:1034A000800010BD0846420018BFD2F1807288BF6C
:1034B00000F0004010BDFF2141EAD050C005704728
:1034C000FEF7C0BE0400000800000000000000027B
:1034D000000100001000000002400000000000A0F9
:1034E0000000000005400000000000C800000000CF
:1034F0000C4000000000409C00000000194000004B
:103500000020BCBE0000000034400000BFC91B8E7C
:1035100000000004B5400000504BCFD06607E2CF5A
:10352000010000006C4100003E8251AADFEEA7348A
:1035300001000000D9420000DCB5A0E23A301F973C
:10354000FFFFFFFFB4450000FD25A0C8E9A3C14F60
:10355000FFFFFFFFFF3F00000000008000000000B1
:10356000FF3F00000000008000000000A8350008B8
:10357000000000203C00000028010008E43500089D
:103580003C00002074060000440100081C000000FC
:1035900043000000F8FFFFFF0C0000000E000000D9
:1035A0000F0000002E00000000A24A0400000000EE
:1035B00000000000010203040607080900000000E3
:1035C0000000F4415C00000000000000000000006A
:1035D00000000102030401020304060708090204B3
:0435E00006080000D9
:04000005080000ED02
:00000001FF
