:020000040800F2
:1000000038070020CD0100088D08000859080008B5
:10001000890800081F030008F11100080000000013
:100020000000000000000000000000006D0A000851
:10003000690300080000000015090008590B0008BA
:10004000E7010008E7010008E7010008E7010008F0
:10005000E7010008E7010008E7010008E7010008E0
:10006000E7010008E7010008E7010008E7010008D0
:10007000E7010008E7010008E7010008E7010008C0
:10008000E7010008E7010008E7010008E7010008B0
:10009000E7010008E7010008E70100086B0300081A
:1000A000E7010008E7010008E7010008E701000890
:1000B000E7010008E7010008E7010008E701000880
:1000C000E7010008E7010008E7010008E701000870
:1000D000E7010008D90B0008890C00083D0D000855
:1000E000E7010008E7010008E7010008E701000850
:1000F000E7010008E7010008E7010008E701000840
:10010000E7010008E7010008E7010008E70100082F
:10011000E7010008E7010008E7010008E70100081F
:10012000E7010008E7010008E7010008E70100080F
:1001300000F002F800F03AF80AA090E8000C8244BF
:100140008344AAF10107DA4501D100F02FF8AFF29C
:10015000090EBAE80F0013F0010F18BFFB1A43F0A5
:1001600001031847501C0000701C0000103A24BF07
:1001700078C878C1FAD8520724BF30C830C144BF0C
:1001800004680C607047000000230024002500264E
:10019000103A28BF78C1FBD8520728BF30C148BFEA
:1001A0000B6070471FB51FBD10B510BD00F06CF897
:1001B0001146FFF7F7FF01F0CBF800F09EF803B40B
:1001C000FFF7F2FF03BC00F0A3F8000009488047E6
:1001D00009480047FEE7FEE7FEE7FEE7FEE7FEE729
:1001E000FEE7FEE7FEE7FEE704480549054A064B41
:1001F00070470000790B0008310100083801002029
:100200003807002038030020380300200FB40449C9
:1002100010B503AA029800F009F810BC5DF814FBB1
:100220000C0000207047704770470000074B70B506
:100230000D467B4400F011F80446284600F020F8F3
:1002400010B14FF0FF3070BD204670BD03110000AB
:1002500001694A1C02610878704700B58FB0CDE98A
:1002600001310021059105497944CDE9031011467A
:10027000684600F02EF80FB000BD0000E5FFFFFF5C
:10028000007B00F080007047754600F03DF8AE46F8
:1002900005006946534620F00700854618B020B592
:1002A000FFF7A2FFBDE820404FF000064FF0000727
:1002B0004FF000084FF0000B21F00701AC46ACE80E
:1002C000C009ACE8C009ACE8C009ACE8C0098D467B
:1002D00070472DE9F04106460024D6E90170F56823
:1002E0008046304603E04146B847641C3046A84784
:1002F0000028F8D12046BDE8F0810446AFF3008025
:100300002046FFF75CFF000000487047D400002043
:1003100001491820ABBEFEE726000200704700BF6F
:10032000FEE7000010B50D48006868B101F060F804
:100330000A490968401AB0F5617F05D902200849C9
:1003400008700020054908600548007805490870D4
:100350000020034908700348007810BD5C000020AD
:10036000580000204D000020704710B5202000F0FC
:100370001BF820B14FF4FA61152000F03BFF40203C
:1003800000F012F820B14FF4FA61162000F032FFAD
:100390004FF4787000F002F810BD000001490860C9
:1003A0007047000014040140014600200022074B62
:1003B0001B6803EA0102054B14331B680B4013B1A1
:1003C0000AB1012000E00020704700000004014055
:1003D000002123498279002A3AD00A46126803682C
:1003E0009A430B461A600A1D126803689A430B1D54
:1003F0001A60027911440A6803681A430A60184AAD
:100400000832126803689A43154B08331A601A1DA4
:10041000126803689A43124B0C331A604279102A0F
:100420000ED11A1F126803681A430D4B08331A6065
:100430001A1D126803681A43094B0C331A600DE049
:100440000749427911440A6803681A430A6005E0C3
:10045000027911440A6803689A430A6070470000F1
:10046000000401402DE9FF470646894692460121D6
:10047000084600F071FA6B48864203D104274FF01A
:10048000000828E06848864203D108274FF0010899
:1004900021E06648864203D110274FF002081AE097
:1004A0006348864203D120274FF0030813E06148D8
:1004B000864203D140274FF004080CE05E48864294
:1004C00003D180274FF0050805E05C48864202D141
:1004D00087154FF00608B9F5807F4BD01ADCB9F1CB
:1004E000100F3BD00CDCB9F1010F2BD0B9F1020F8A
:1004F0002BD0B9F1040F2BD0B9F1080F52D12AE05B
:10050000B9F1200F2DD0B9F1400F2DD0B9F1800FE6
:1005100048D12CE0B9F5805F38D009DCB9F5007F0F
:100520002BD0B9F5806F2BD0B9F5006F3AD12AE006
:10053000B9F5005F2DD0B9F5804F2DD0B9F5004F3A
:1005400030D12CE0002406252DE0012407252AE0E7
:100550000224082527E00324092524E004240A2591
:1005600021E0052417251EE0062417251BE007249B
:10057000172518E00824172515E00924172512E08F
:100580000A2428250FE00B2428250CE00C2428251C
:1005900009E00D24282506E00E24282503E00F2479
:1005A000282500E000BF00BF0121384600F0D4F943
:1005B000ADF80C9003208DF80E00BAF10C0F03D1AA
:1005C00048208DF80F0009E0BAF1080F03D1282068
:1005D0008DF80F0002E004208DF80F0003A93046CB
:1005E00000F04EF82146404600F02AF8CDF804907D
:1005F00001208DF80A0000208DF808008DF809A070
:1006000001A8FFF7E5FE8DF8005006208DF80100E7
:100610008DF8024001208DF80300684600F038F99B
:10062000BDE8FF8700080140000C014000100140B8
:100630000014014000180140001C0140002001404E
:1006400030B500228B071C0F0F2303FA04F20B4B6B
:100650008C1053F824309343084C8D1044F8253007
:1006600023468C1053F824308C07240F00FA04F42E
:100670002343024C8D1044F8253030BD0800014062
:100680002DE9F04102460025002600200023002429
:10069000002791F803C00CF00F0591F803C00CF08F
:1006A000100CBCF1000F03D091F802C04CEA050514
:1006B00091F800C0BCF1000F31D0146800202BE08D
:1006C0004FF0010C0CFA00F3B1F800C00CEA03067D
:1006D0009E4220D183004FF00F0C0CFA03F7BC436D
:1006E00005FA03FC4CEA040491F803C0BCF1280F9E
:1006F00006D14FF0010C0CFA00FCC2F814C00AE05D
:1007000091F803C0BCF1480F05D14FF0010C0CFA71
:1007100000FCC2F810C0401C0828D1D31460B1F806
:1007200000C0BCF1FF0F34DD546800202EE000F162
:10073000080C4FF0010808FA0CF3B1F800C00CEAFD
:1007400003069E4221D183004FF00F0C0CFA03F7F1
:10075000BC4305FA03FC4CEA040491F803C0BCF165
:10076000280F05D100F1080C08FA0CF8C2F8148023
:1007700091F803C0BCF1480F07D100F1080C4FF00D
:10078000010808FA0CF8C2F81080401C0828CED3E3
:100790005460BDE8F0810246002093680B400BB125
:1007A000012000E00020704741617047F8B5044621
:1007B0000D4616461F462148844204D101210420DB
:1007C00000F0CAF82EE01E48844204D1012108201E
:1007D00000F0C2F826E01B48844204D10121102019
:1007E00000F0BAF81EE01848844204D1012120200C
:1007F00000F0B2F816E01548844204D101214020EF
:1008000000F0AAF80EE01248844204D101218020B1
:1008100000F0A2F806E00F48844203D101218015C0
:1008200000F09AF8ADF800508DF803608DF8027072
:1008300069462046FFF724FFF8BD0000000801408C
:10084000000C01400010014000140140001801405C
:10085000001C01400020014000BFFEE710B503234B
:10086000102260210648FFF7A1FF20210448FFF76E
:100870009BFF0323482220210248FFF797FF10BD6A
:10088000000C01400018014000BFFEE77047000067
:1008900070B5002100230F22C47804B3154C2468DE
:1008A00004F4E064C4F5E064210AC1F10403CA4021
:1008B000447804FA03F184781440214309010E4C72
:1008C0000678A155047804F01F050124AC40057892
:1008D0006D11AD0005F1E025C5F8004109E004788F
:1008E00004F01F050124AC40044D0678761145F84C
:1008F000264070BD0CED00E000E400E080E100E087
:1009000002490143024A1160704700000000FA05E5
:100910000CED00E07047000029B1064AD26902439D
:10092000044BDA6104E0034AD2698243014BDA6185
:10093000704700000010024029B1064A12690243C4
:10094000044B1A6104E0034A12698243014B1A61A5
:10095000704700000010024029B1064A9269024324
:10096000044B9A6104E0034A92698243014B9A6105
:10097000704700000010024029B1064AD2680243C5
:10098000044BDA6004E0034AD2688243014BDA6028
:10099000704700000010024030B500210022002402
:1009A00000232D4D6D6805F00C0121B1042905D0FF
:1009B000082923D105E0294D056022E0274D056077
:1009C0001FE0254D6D6805F47012234D6D6805F428
:1009D0008034022505EB92421CB9214D5543056038
:1009E0000BE01D4D6D6805F400351DB11C4D5543E0
:1009F000056002E0194D5543056002E0174D0560A2
:100A000000BF00BF144D6D6805F0F0010909154DD8
:100A10006B5C0568DD4045600F4D6D6805F4E06175
:100A2000090A104D6B5C4568DD4085600A4D6D68B4
:100A300005F46051C90A0B4D6B5C4568DD40C5602B
:100A4000054D6D6805F44041890B074D6B5CC56829
:100A5000B5FBF3F5056130BD0010024000127A00CD
:100A600000093D003800002048000020704710B504
:100A700000F002F810BD00000CB5002001900090BD
:100A80003348006840F480303149086000BF304886
:100A9000006800F4003000900198401C019000981C
:100AA00018B90198B0F5A06FF1D12948006800F499
:100AB000003010B10120009001E00020009000986B
:100AC000012843D12348006840F010002149086004
:100AD0000846006820F0030008600846006840F0FF
:100AE000020008601A484068194948600846406892
:100AF00048600846406840F48060486008464068A6
:100B000020F47C1048600846406840F4E8104860D3
:100B10000846006840F08070086000BF0C4800681C
:100B200000F000700028F9D00948406820F0030068
:100B3000074948600846406840F00200486000BF2E
:100B40000348406800F00C000828F9D10CBD0000F3
:100B5000001002400020024005480068401C044983
:100B6000086004480068401C0249086070470000A3
:100B7000000000200800002010B51348006840F075
:100B800001001149086008464068104908400E49B4
:100B90004860084600680E4908400B49086008464E
:100BA000006820F4802008600846406820F4FE00B9
:100BB00048604FF41F008860FFF759FF4FF0006056
:100BC0000449086010BD0000001002400000FFF85A
:100BD000FFFFF6FE08ED00E010B540F22551064893
:100BE00000F091F930B10448001D0088C1B20348FB
:100BF00000F0C8F910BD00000038014010000020CE
:100C000010B50446E4B901210520FFF7A5FE012136
:100C10008803FFF7A1FE4FF40070184908801820E0
:100C2000C870032088701648FFF72AFD4FF48060D3
:100C3000124908800420C8701148FFF721FD1BE00D
:100C4000012C19D101210820FFF786FE012188031C
:100C5000FFF782FE4020094908801820C870032051
:100C600088700848FFF70CFD8020044908800420A4
:100C7000C8700448FFF704FD10BD000034000020D8
:100C800000080140000C014010B540F22551064813
:100C900000F039F930B10448001D0088C1B20348A2
:100CA00000F070F910BD0000004400401C0000205E
:100CB00010B5044601214804FFF72EFE022C1AD17C
:100CC00001210420FFF748FE01214804FFF724FE1C
:100CD0000420174908801820C87003208870154820
:100CE000FFF7CEFC0820124908800420C870114884
:100CF000FFF7C6FC1BE0032C19D101212020FFF7D0
:100D00002BFE01214804FFF707FE20200849088038
:100D10001820C870032088700748FFF7B1FC4020F6
:100D2000034908800420C8700348FFF7A9FC10BDE0
:100D300034000020000801400014014010B540F2CA
:100D40002551064800F0DFF830B10448001D008846
:100D5000C1B2034800F016F910BD00000048004081
:100D60002800002010B5044601218804FFF7D4FDB7
:100D7000042C1AD101210820FFF7EEFD012188047F
:100D8000FFF7EAFD2002284908801820C8700320D8
:100D900088702648FFF774FC60022349088004200D
:100DA000C8702248FFF76CFC3CE0052C1CD10121E7
:100DB0001020FFF7D1FD01218804FFF7CDFD4FF48E
:100DC0008060194908801820C8700320887018486E
:100DD000FFF756FC4FF40060134908800420C870E8
:100DE0001348FFF74DFC1DE0062C1BD101212020EC
:100DF000FFF7B2FD01218804FFF7AEFD4FF48070CC
:100E0000094908801820C870032088700948FFF736
:100E100037FC4FF40070044908800420C87005486E
:100E2000FFF72EFC10BD000034000020000C014034
:100E3000001001400014014021B1828942F40052A7
:100E4000828104E082894DF6FF731A4082817047E7
:100E500010B504462048844209D101218803FFF7D8
:100E60008BFD00214FF48040FFF786FD32E01B48E8
:100E7000844209D101214804FFF75EFD00214FF4AF
:100E80000030FFF759FD25E01548844209D10121C2
:100E90008804FFF751FD00214FF48020FFF74CFD3F
:100EA00018E01048844209D10121C804FFF744FD2D
:100EB00000214FF40020FFF73FFD0BE00A48844279
:100EC00008D101210805FFF737FD00214FF48010FC
:100ED000FFF732FD10BD0000003801400044004023
:100EE00000480040004C00400050004002460020F6
:100EF000B1F5007F00D100BF13880B400BB101207A
:100F000000E00020704770B5024600240023002551
:100F1000002040F66A16B14200D100BFC1F342156D
:100F200001F01F03012606FA03F3012D02D1968971
:100F3000334006E0022D02D1168A334001E0968A42
:100F400033400C12012606FA04F41688344013B11B
:100F50000CB1012000E0002070BD00000146064AEF
:100F6000914200D10020054A914200D10120044A5B
:100F7000914200D1022070470038014000440040F7
:100F80000048004010B5C28883889A420FDA02896F
:100F900083889A4201D1002202814AB204890368FF
:100FA0001A550289521C0281C288521CC28010BD8F
:100FB000F0B50346002400260025002040F66A17FD
:100FC000B94200D100BF1846C1F3421401F01F0618
:100FD000012707FA06F5012C01D10C3004E0022CA0
:100FE00001D1103000E014301AB107682F430760B8
:100FF00002E00768AF430760F0BD00002DE9F0474D
:1010000086B005460E460024A24600BFA146002732
:10101000B08900B100BF2F462C8A4CF6FF70044007
:10102000F08804432C82AC894EF6F3100440B0885B
:1010300031890843718908430443AC81AC8A4FF677
:10104000FF400440B0890443AC8201A8FFF7A4FC30
:101050001F48874202D1DDF810A001E0DDF80CA0A6
:10106000A88900F4004040B10AEBCA0000EB0A1066
:1010700031684900B0FBF1F807E00AEBCA0000EB69
:101080000A1031688900B0FBF1F86420B8FBF0F079
:1010900004012009642101FB1089A88900F40040A3
:1010A00040B1322000EBC900B0FBF1F000F00700C6
:1010B000044308E0322000EB09106421B0FBF1F09A
:1010C00000F00F0004432C8106B0BDE8F08700005B
:1010D0000038014013B5044600BF80212046FFF7C9
:1010E00005FF0028F9D09DF80400A0801CBD70B554
:1010F00005460C4604E014F8011B2846FFF7EAFFFA
:1011000020780028F7D170BD70B586B004460D4632
:10111000164602963348844212D12846FFF770FDE6
:1011200025208DF804000020ADF814000C20ADF847
:1011300012000020ADF81000ADF80E00ADF80C0064
:101140002948844212D12846FFF7B2FD26208DF8A7
:1011500004000020ADF814000C20ADF812000020AF
:10116000ADF81000ADF80E00ADF80C001F48844239
:1011700012D12846FFF7F6FD27208DF80400002045
:10118000ADF814000C20ADF812000020ADF81000EE
:10119000ADF80E00ADF80C0000212046FFF74CFE24
:1011A0002046FFF755FE02A92046FFF727FF012141
:1011B0002046FFF741FE012240F225512046FFF76D
:1011C000F7FE01208DF8070000208DF8050020466D
:1011D000FFF7C4FE8DF8060001A8FFF759FB06B023
:1011E00070BD00000038014000440040004800404D
:1011F00000BFFEE770B505460E4600F0F9F804465C
:101200001B4806801B480580284600F083F81A49D1
:1012100008700846007860B91848006830B117486F
:101220000068201A12490988884220D913480460AE
:101230001DE012480068D0B110480068201AB0F5CF
:10124000617F03D201200E4908700DE00B48006851
:10125000201A07490988884203D2022008490870E9
:1012600002E000200649087000200449086070BDB3
:1012700056000020540000204C0000205C0000209C
:101280005800002070B5044600F0B2F8051901E0DE
:1012900000F00EF900F0ACF8A842F9D370BD0000E0
:1012A00070B54FF44070FFF72BFB144800684FF403
:1012B0007A72B0FBF2F1B1F1807F00D31DE021F032
:1012C0007F40401E4FF0E022506150170F2200284F
:1012D00007DA13071D0E0A4B00F00F04241F1D55DB
:1012E00003E013071C0E074B1C5400BF00204FF0F7
:1012F000E02290610720106100BF70BD60000020F7
:1013000018ED00E000E400E010B504462046FFF7C9
:10131000B9FF10BD10B5044604EB4402054B03EBC6
:10132000C202928891B204EB440253F83200FFF7F4
:1013300032FA10BDB414000870B504460D46E1B28F
:101340000248FFF7C7FE204670BD00000044004081
:101350004FF4A060FFF7D4FA4FF4E13200211A48AD
:10136000FFF7D2FEFFF77AFA0221152000F046F8C7
:101370000C2240211548FFF775F80C222021134854
:10138000FFF770F812A11048FFF7B1FEFFF788FFD2
:1013900019E0FEF7C7FF044610480088152805D15C
:1013A000012C03D10EA0FEF731FF08E00B480088A6
:1013B000162804D1002C02DD0BA0FEF727FFC82061
:1013C000FFF7A2FF00BFE4E700380140000C014036
:1013D0004C56445F4943200A00000000540000209E
:1013E00061626331200A000061626332200A0000FA
:1013F000014800687047000000000020F8B505466D
:101400000C4605EB4500294951F8306005EB4500D5
:1014100001EBC000808887B205EB4501234A02EB4F
:10142000C10188680121FFF797FAADF800701CB977
:1014300004208DF8030034E0022C03D148208DF8FD
:1014400003002EE0032C03D128208DF8030028E0B0
:10145000012C06D110208DF8030003208DF8020026
:101460001FE0072C06D114208DF8030003208DF80F
:10147000020016E0042C06D11C208DF80300032086
:101480008DF802000DE0052C06D118208DF8030020
:1014900003208DF8020004E0062C02D100208DF814
:1014A000030069463046FFF7EBF8F8BDB4140008B6
:1014B0007047000000080140010000000400000027
:1014C00000000000000C0040000000000008014087
:1014D00002000000040000000100000000000040C5
:1014E00004000000000801400400000004000000A7
:1014F0000200000000000040080000000008014059
:10150000080000000400000003000000000000408C
:101510000C00000000080140100000000400000062
:10152000040000000000000000000000000801406E
:101530002000000004000000050000000000000082
:10154000000000000008014040000000040000000E
:1015500006000000000400400000000000080140F8
:1015600080000000040000000700000000040040AC
:101570000400000000080140000100000400000019
:1015800000000000002C01400000000000080140A5
:10159000000200000400000000000000002C0140D8
:1015A00004000000000801400004000004000000E6
:1015B00000000000002C014008000000000801406D
:1015C000000800000400000000000000002C0140A2
:1015D0000C000000000801400010000004000000A2
:1015E00000000000000000000000000000080140B2
:1015F00000200000040000000000000000000000C7
:10160000000000000008014000400000040000004D
:101610000000000000000000000000000008014081
:101620000080000004000000000000000000000036
:1016300000000000000C0140010000000800000054
:10164000080000000004004008000000000C0140F9
:101650000200000008000000090000000004004033
:101660000C000000000C0140040000000800000015
:10167000000000000000000000000000000C01401D
:10168000080000000800000000000000000000400A
:1016900004000000000C01401000000008000000E1
:1016A000000000000004004000000000000C0140A9
:1016B00020000000080000000000000000040040BE
:1016C00004000000000C0140400000000800000081
:1016D000000000000008004000000000000C014075
:1016E000800000000800000000000000000800402A
:1016F00004000000000C0140000100000800000090
:10170000000000000050014000000000000C0140FB
:10171000000200000800000000000000005401402A
:1017200000000000000C0140000400000800000060
:10173000000000000000004008000000000C014014
:101740000008000008000000000000000000004049
:101750000C000000000C0140001000000800000018
:10176000000000000000000000000000000C01402C
:101770000020000008000000000000000000000041
:1017800000000000000C01400040000008000000C4
:10179000000000000018004000000000000C0140A4
:1017A0000080000008000000000000000018004059
:1017B00004000000001001400100000010000000C3
:1017C0000A000000000000000000000000100140BE
:1017D00002000000100000000B00000000000000EC
:1017E0000000000000100140040000001000000094
:1017F0000C0000000000000000000000001001408C
:1018000008000000100000000D00000000000000B3
:101810000000000000100140100000001000000057
:101820000E00000000000000000000000010014059
:1018300020000000100000000E000000000000006A
:1018400000000000001001404000000010000000F7
:1018500000000000003401400000000000100140C2
:101860008000000010000000000000000034014073
:101870000400000000100140000100001000000002
:10188000000000000034014008000000001001408A
:1018900000020000100000000000000000340140C1
:1018A0000C000000001001400004000010000000C7
:1018B00000000000000000000000000000100140D7
:1018C0000008000010000000000000000000000000
:1018D0000000000000100140001000001000000097
:1018E00000000000000000000000000000100140A7
:1018F00000200000100000000000000000000000B8
:101900000000000000100140004000001000000036
:101910000000000000000000000000000010014076
:101920000080000010000000000000000000000027
:101930000000000000140140010000002000000031
:101940000000000000000000000000000014014042
:101950000200000020000000000000000000000065
:1019600000000000001401400400000020000000FE
:101970000000000000000000000000000014014012
:10198000080000002000000000000000000000002F
:1019900000000000001401401000000020000000C2
:1019A00000000000000000000000000000140140E2
:1019B00020000000200000000000000000000000E7
:1019C0000000000000140140400000002000000062
:1019D00000000000000000000000000000140140B2
:1019E0008000000020000000000000000000000057
:1019F0000000000000140140000100002000000071
:101A00000000000000000000000000000014014081
:101A100000020000200000000000000000000000A4
:101A2000000000000014014000040000200000003D
:101A30000000000000000000000000000014014051
:101A4000000800002000000000000000000000006E
:101A50000000000000140140001000002000000001
:101A600000000000000800400000000000140140D9
:101A700000200000200000000000000000080040DE
:101A8000040000000014014000400000200000009D
:101A900000000000000800400800000000140140A1
:101AA000008000002000000000000000000800404E
:101AB0000C00000000180140010000004000000080
:101AC00000000000000000000000000000180140BD
:101AD00002000000400000000000000000000000C4
:101AE0000000000000180140040000004000000059
:101AF000000000000000000000000000001801408D
:101B0000080000004000000000000000000000008D
:101B1000000000000018014010000000400000001C
:101B2000000000000000000000000000001801405C
:101B300020000000400000000000000000100040F5
:101B400000000000001801404000000040000000BC
:101B500000000000001000400400000000180140D8
:101B600080000000400000000000000000000000B5
:101B700000000000001801400001000040000000CB
:101B800000000000000000000000000000180140FC
:101B9000000200004000000000000000002C014096
:101BA0000000000000180140000400004000000098
:101BB00000000000000000000000000000180140CC
:101BC000000800004000000000000000002C014060
:101BD0000400000000180140001000004000000058
:101BE000000000000000000000000000001801409C
:101BF000002000004000000000000000002C014018
:101C000008000000001801400040000040000000F3
:101C100000000000002C01400C00000000180140F2
:101C200000800000400000000000000000000000F4
:101C300000000000001C01400100000080000000C6
:101C4000000000000000000000000000001C014037
:101C50000200000080000000000000000000000002
:101C600000000000001C0140040000008000000093
:101C7000000000000000000000000000001C014007
:101C800008000000800000000000000000000000CC
:101C900000000000001C0140100000008000000057
:101CA000000000000000000000000000001C0140D7
:101CB0002000000080000000000000000000000084
:101CC00000000000001C01404000000080000000F7
:101CD000000000000000000000000000001C0140A7
:101CE00080000000800000000000000000000000F4
:101CF00000000000001C0140000100008000000006
:101D0000000000000000000000000000001C014076
:101D10000002000080000000000000000000000041
:101D200000000000001C01400004000080000000D2
:101D3000000000000000000000000000001C014046
:101D4000000800008000000000000000000000000B
:101D500000000000001C0140001000008000000096
:101D6000000000000000000000000000001C014016
:101D700000200000800000000000000000000000C3
:101D800000000000001C0140004000008000000036
:101D9000000000000000000000000000001C0140E6
:101DA0000080000080000000000000000000000033
:101DB00000000000D41D0008000000207400000096
:101DC0006C010008481E000874000020C4060000D2
:101DD0008801000800000000000000000000000072
:101DE000000000007400002020000000000000003F
:101DF000940000202000000000000000B40000203B
:101E000020000000000000000000000000000000B2
:101E1000010203040102030406070809020406087C
:101E200000000000000000000000000000000000B2
:101E30000000000000A24A040000000000000000B2
:081E4000010203040607080972
:0400000508000131BD
:00000001FF
