:020000040800F2
:1000000030070020D5010008B7050008AF0500083B
:10001000B305000893040008BD0F000800000000AD
:100020000000000000000000000000008107000840
:100030009704000800000000290600089508000841
:10004000EF010008EF010008EF010008EF010008D0
:10005000EF010008EF010008EF010008EF010008C0
:10006000EF010008EF010008EF010008EF010008B0
:10007000EF010008EF010008EF010008EF010008A0
:10008000EF010008EF010008EF010008EF01000890
:10009000EF010008EF010008EF010008EF01000880
:1000A000EF010008EF010008EF010008EF01000870
:1000B000EF010008EF010008EF010008EF01000860
:1000C000EF010008EF010008EF010008EF01000850
:1000D000EF010008F90800084D0A0008010B0008AC
:1000E000EF010008EF010008EF010008EF01000830
:1000F000EF010008EF010008EF010008EF01000820
:10010000EF010008EF010008EF010008EF0100080F
:10011000EF010008EF010008EF010008EF010008FF
:10012000EF010008EF010008EF010008EF010008EF
:1001300000F002F800F03FF80AA090E8000C8244BA
:100140008344AAF10107DA4501D100F034F8AFF297
:10015000090EBAE80F0013F0010F18BFFB1A43F0A5
:100160000103184790140000B0140000103A24BF97
:1001700078C878C1FAD8520724BF30C830C144BF0C
:1001800004680C607047000000230024002500264E
:10019000103A28BF78C1FBD8520728BF30C148BFEA
:1001A0000B607047642900F07580002070471FB510
:1001B0001FBD10B510BD00F033F91146FFF7F7FF72
:1001C00000F052FF00F051F903B4FFF7F2FF03BC57
:1001D00000F058F90948804709480047FEE7FEE764
:1001E000FEE7FEE7FEE7FEE7FEE7FEE7FEE7FEE7E7
:1001F00004480549054A064B704700009908000865
:1002000031010008300100203007002030030020B9
:10021000300300200FB4044910B503AA029800F07F
:10022000D1F810BC5DF814FB280000202DE9F04146
:100230000E460446002020622046E168884730B31D
:10024000252805D0D4E901219047206A401CF2E717
:10025000E168204600278847050018D0A5F1410035
:10026000192802D820354FF4006732462946204627
:100270002760FFF797FF40B1012804D0F61D26F054
:1002800007060836D8E7361DD6E72846DAE7206A9B
:10029000BDE8F0812DE9F04106460024106875297B
:1002A000314616A510D0AFF30080002802DA404294
:1002B00013A507E031688A0701D512A502E04907B6
:1002C00004D511A5012401E0AFF3008000210A222A
:1002D00006F1240709E0B0FBF2FCB0FBF2F302FBED
:1002E0001C00303078541846491C0028F3D12346AE
:1002F0002A463046BDE8F04100F00BB8000000008F
:100300002D0000002B000000200000007047704707
:1003100070472DE9F0470D4699469246044600F194
:1003200024080168880604D5E06921F010012160E5
:1003300000E00120A84201DD471B00E00027A16981
:100340007A1902EB0900081AA0612078C00602D4CD
:100350002046AFF30080002608E0D4E901211AF816
:1003600006009047206A401C761C20624E45F4DB54
:100370002078C0060AD52046AFF3008006E0D4E915
:10038000012130209047206A401C2062381EA7F1CE
:100390000107F4DC07E0D4E9012118F805009047D3
:1003A000206A401C2062281EA5F10105F3DC2046CE
:1003B000AFF300802078000602D50220BDE8F08768
:1003C0000120FBE7074B70B50D467B4400F011F8A8
:1003D0000446284600F020F810B14FF0FF3070BD01
:1003E000204670BD830C000001694A1C0261087838
:1003F000704700B58FB0CDE9013100210591054965
:100400007944CDE9031011466846FFF70FFF0FB09E
:1004100000BD0000E5FFFFFF007B00F0800070479B
:10042000754600F02BF8AE4605006946534620F0AD
:100430000700854618B020B5FFF7DAFEBDE820407A
:100440004FF000064FF000074FF000084FF0000B90
:1004500021F00701AC46ACE8C009ACE8C009ACE843
:10046000C009ACE8C0098D46704710B50446AFF32B
:1004700000802046BDE81040FFF7A6BE0048704748
:10048000CC00002001491820ABBEFEE72600020088
:10049000704700BFFEE770472DE9F0410246002596
:1004A0000026002000230024002791F803C00CF050
:1004B0000F0591F803C00CF0100CBCF1000F03D035
:1004C00091F802C04CEA050591F800C0BCF1000F9C
:1004D00031D0146800202BE04FF0010C0CFA00F32F
:1004E000B1F800C00CEA03069E4220D183004FF011
:1004F0000F0C0CFA03F7BC4305FA03FC4CEA0404A6
:1005000091F803C0BCF1280F06D14FF0010C0CFA92
:1005100000FCC2F814C00AE091F803C0BCF1480F17
:1005200005D14FF0010C0CFA00FCC2F810C0401CC1
:100530000828D1D31460B1F800C0BCF1FF0F34DD3E
:10054000546800202EE000F1080C4FF0010808FA72
:100550000CF3B1F800C00CEA03069E4221D18300DF
:100560004FF00F0C0CFA03F7BC4305FA03FC4CEAFE
:10057000040491F803C0BCF1280F05D100F1080C68
:1005800008FA0CF8C2F8148091F803C0BCF1480FC7
:1005900007D100F1080C4FF0010808FA0CF8C2F876
:1005A0001080401C0828CED35460BDE8F08100BF05
:1005B000FEE700BFFEE7704770B5002100230F2261
:1005C000C47804B3154C246804F4E064C4F5E06412
:1005D000210AC1F10403CA40447804FA03F1847883
:1005E0001440214309010E4C0678A155047804F00B
:1005F0001F050124AC4005786D11AD0005F1E02523
:10060000C5F8004109E0047804F01F050124AC405E
:10061000044D0678761145F8264070BD0CED00E0DB
:1006200000E400E080E100E07047000029B1064AE4
:10063000D2690243044BDA6104E0034AD26982437F
:10064000014BDA61704700000010024029B1064AF0
:1006500012690243044B1A6104E0034A126982439F
:10066000014B1A61704700000010024029B1064A90
:1006700092690243044B9A6104E0034A92698243FF
:10068000014B9A61704700000010024029B1064AF0
:10069000D2680243044BDA6004E0034AD268824322
:1006A000014BDA60704700000010024030B50021B5
:1006B0000022002400232D4D6D6805F00C0121B1AE
:1006C000042905D0082923D105E0294D056022E041
:1006D000274D05601FE0254D6D6805F47012234D10
:1006E0006D6805F48034022505EB92421CB9214D5A
:1006F000554305600BE01D4D6D6805F400351DB1D7
:100700001C4D5543056002E0194D5543056002E05C
:10071000174D056000BF00BF144D6D6805F0F00176
:100720000909154D6B5C0568DD4045600F4D6D682E
:1007300005F4E061090A104D6B5C4568DD40856099
:100740000A4D6D6805F46051C90A0B4D6B5C456834
:10075000DD40C560054D6D6805F44041890B074DCE
:100760006B5CC568B5FBF3F5056130BD0010024058
:1007700000127A0000093D005400002064000020AF
:10078000704710B500F002F810BD00000CB5002055
:10079000019000903348006840F48030314908608F
:1007A00000BF3048006800F4003000900198401C01
:1007B0000190009818B90198B0F5A06FF1D12948BF
:1007C000006800F4003010B10120009001E000202A
:1007D00000900098012843D12348006840F01000A1
:1007E000214908600846006820F0030008600846B8
:1007F000006840F0020008601A48406819494860E3
:100800000846406848600846406840F48060486098
:100810000846406820F47C1048600846406840F470
:10082000E81048600846006840F08070086000BF2B
:100830000C48006800F000700028F9D009484068B2
:1008400020F00300074948600846406840F0020075
:10085000486000BF0348406800F00C000828F9D148
:100860000CBD00000010024000200240042808D106
:100870004FF0E021096941F004014FF0E0221161DD
:1008800007E04FF0E021096921F004014FF0E02278
:10089000116170477047000010B51348006840F0C0
:1008A00001001149086008464068104908400E4997
:1008B0004860084600680E4908400B490860084631
:1008C000006820F4802008600846406820F4FE009C
:1008D00048604FF41F008860FFF753FF4FF000603F
:1008E0000449086010BD0000001002400000FFF83D
:1008F000FFFFF6FE08ED00E01CB52B4840792A49C1
:100900000979294CCDE90010E378A2786178207844
:1009100000F03AFD20460078AA2812D120464078FF
:10092000AA280ED100BF2148006800F4E0602049E9
:100930000843001D1D490860BFF34F8F00BF00BF73
:10094000FEE740F225511B4800F0CFF9012829D1DC
:1009500040F22551174800F051F91648001D008853
:100960001549087015480078042812D10846017806
:10097000134802780078401C114B18700A488154C3
:1009800018460078052804DD00200C490870194637
:10099000087009480078AA2804D108480078401C4B
:1009A000064908701CBD0000060000200CED00E0A8
:1009B0000000FA050038014002000020030000207A
:1009C0000400002010B50446E4B901210520FFF71A
:1009D0004DFE01218803FFF749FE4FF400701849CE
:1009E00008801820C870032088701648FFF754FD4F
:1009F0004FF48060124908800420C8701148FFF746
:100A00004BFD1BE0012C19D101210820FFF72EFE20
:100A100001218803FFF72AFE402009490880182099
:100A2000C870032088700848FFF736FD802004490D
:100A300008800420C8700448FFF72EFD10BD000098
:100A40005000002000080140000C014010B540F2A9
:100A50002551064800F049F930B10448001D0088CE
:100A6000C1B2034800F080F910BD0000004400400E
:100A70003800002010B5044601214804FFF7D6FDD8
:100A8000022C1AD101210420FFF7F0FD01214804B6
:100A9000FFF7CCFD0420174908801820C8700320F8
:100AA00088701548FFF7F8FC0820124908800420D8
:100AB000C8701148FFF7F0FC1BE0032C19D101218D
:100AC0002020FFF7D3FD01214804FFF7AFFD2020D0
:100AD000084908801820C870032088700748FFF76D
:100AE000DBFC4020034908800420C8700348FFF75E
:100AF000D3FC10BD5000002000080140001401404C
:100B000010B540F22551064800F0EFF830B1044826
:100B1000001D0088C1B2034800F026F910BD000096
:100B2000004800404400002010B50446012188041C
:100B3000FFF77CFD042C1AD101210820FFF796FD58
:100B400001218804FFF792FD20022849088018201F
:100B5000C870032088702648FFF79EFC6002234976
:100B600008800420C8702248FFF796FC3CE0052C62
:100B70001CD101211020FFF779FD01218804FFF726
:100B800075FD4FF48060194908801820C870032053
:100B900088701848FFF780FC4FF400601349088004
:100BA0000420C8701348FFF777FC1DE0062C1BD10A
:100BB00001212020FFF75AFD01218804FFF756FD8F
:100BC0004FF48070094908801820C870032088708D
:100BD0000948FFF761FC4FF40070044908800420C5
:100BE000C8700548FFF758FC10BD000050000020F9
:100BF000000C0140001001400014014010B500221B
:100C0000002340F66A14A14200D100BF0A12012459
:100C10009440A3B2DC43048010BD21B1828942F428
:100C20000052828104E082894DF6FF731A4082816E
:100C30007047000010B504462048844209D10121C4
:100C40008803FFF723FD00214FF48040FFF71EFDCE
:100C500032E01B48844209D101214804FFF7F6FC29
:100C600000214FF40030FFF7F1FC25E015488442E5
:100C700009D101218804FFF7E9FC00214FF480200D
:100C8000FFF7E4FC18E01048844209D10121C804B0
:100C9000FFF7DCFC00214FF40020FFF7D7FC0BE04E
:100CA0000A48844208D101210805FFF7CFFC002142
:100CB0004FF48010FFF7CAFC10BD0000003801405F
:100CC0000044004000480040004C004000500040FC
:100CD00002460020B1F5007F00D100BF13880B4011
:100CE0000BB1012000E00020704770B502460024DF
:100CF00000230025002040F66A16B14200D100BF53
:100D0000C1F3421501F01F03012606FA03F3012D7A
:100D100002D19689334006E0022D02D1168A334073
:100D200001E0968A33400C12012606FA04F4168874
:100D3000344013B10CB1012000E0002070BD000070
:100D40000146064A914200D10020054A914200D155
:100D50000120044A914200D102207047003801402E
:100D6000004400400048004010B5C28883889A4281
:100D70000FDA028983889A4201D1002202814AB2A5
:100D8000048903681A550289521C0281C288521CC8
:100D9000C28010BDF0B503460024002600250020C7
:100DA00040F66A17B94200D100BF1846C1F3421499
:100DB00001F01F06012707FA06F5012C01D10C30BE
:100DC00004E0022C01D1103000E014301AB10768A1
:100DD0002F43076002E00768AF430760F0BD0000E3
:100DE0002DE9F04786B005460E460024A24600BF16
:100DF000A1460027B08900B100BF2F462C8A4CF6CF
:100E0000FF700440F08804432C82AC894EF6F31046
:100E10000440B08831890843718908430443AC8198
:100E2000AC8A4FF6FF400440B0890443AC8201A86D
:100E3000FFF73CFC1F48874202D1DDF810A001E01B
:100E4000DDF80CA0A88900F4004040B10AEBCA000C
:100E500000EB0A1031684900B0FBF1F807E00AEB3B
:100E6000CA0000EB0A1031688900B0FBF1F8642079
:100E7000B8FBF0F004012009642101FB1089A88966
:100E800000F4004040B1322000EBC900B0FBF1F0AB
:100E900000F00700044308E0322000EB0910642151
:100EA000B0FBF1F000F00F0004432C8106B0BDE868
:100EB000F08700000038014013B5044600BF8021D0
:100EC0002046FFF705FF0028F9D09DF80400A08018
:100ED0001CBD000070B586B004460D46164602964D
:100EE0003348844212D12846FFF76CFD25208DF847
:100EF00004000020ADF814000C20ADF81200002012
:100F0000ADF81000ADF80E00ADF80C002948844291
:100F100012D12846FFF7AEFD26208DF804000020F0
:100F2000ADF814000C20ADF812000020ADF8100050
:100F3000ADF80E00ADF80C001F48844212D12846CF
:100F4000FFF7F2FD27208DF804000020ADF8140013
:100F50000C20ADF812000020ADF81000ADF80E0026
:100F6000ADF80C0000212046FFF757FE2046FFF7A2
:100F700061FE02A92046FFF733FF01212046FFF75B
:100F80004CFE012240F225512046FFF703FF0120CD
:100F90008DF8070000208DF805002046FFF7D0FEF1
:100FA0008DF8060001A8FFF707FB06B070BD000032
:100FB00000380140004400400048004000BFFEE708
:100FC00010B56FF00400FFF751FC0A4800680A49A9
:100FD000B0FBF1F0094908700846007800EB4001C9
:100FE000C1EBC0104FF6FF7101EAC0000449088050
:100FF00010BD00001000002000127A002400002024
:10100000260000200146114A12884A434FF0E0238F
:101010005A6100229A611A46126942F001021A616D
:1010200000BF4FF0E022106900F001021AB100F495
:101030008032002AF5D04FF0E022126922F001023E
:101040004FF0E0231A6100229A61704726000020C9
:1010500070B504460D46E1B20248FFF72DFF204669
:1010600070BD000000440040FFF7AAFF4FF4964215
:1010700000217448FFF72EFF4FF4E132022172483D
:10108000FFF728FFDDE07148007800F0010030B183
:101090006E48007800F001016DA0FFF7BBF86B48C7
:1010A0000078C0F3400030B168480078C0F34001D8
:1010B0006BA0FFF7AFF865480078C0F3800030B14F
:1010C00062480078C0F3800169A0FFF7A3F85F4889
:1010D0000078C0F3C00030B15C480078C0F3C001B4
:1010E00067A0FFF797F859480078C0F3001030B1B7
:1010F00056480078C0F3001164A0FFF78BF85348FE
:101100000078C0F3401030B150480078C0F340116F
:1011100062A0FFF77FF84D480078C0F3801030B12F
:101120004A480078C0F3801160A0FFF773F8474881
:1011300000780121B1EBD01F05D144480078C109E6
:101140005EA0FFF767F841484078C0F3800030B1F7
:101150003E484078C0F380015CA0FFF75BF83B4855
:101160004078C0F3C00030B138484078C0F3C001C7
:1011700059A0FFF74FF8354840780121B1EBD01F57
:1011800005D132484078C10956A0FFF743F82F48EF
:10119000407800F0010030B12C48407800F00101A7
:1011A00053A0FFF737F829484078C0F3400030B12A
:1011B00026484078C0F3400150A0FFF72BF82348A1
:1011C0004078C0F3801030B120484078C0F38011DF
:1011D0004DA0FFF71FF81D484078C0F3401030B114
:1011E0001A484078C0F340114AA0FFF713F8174897
:1011F0004078C0F3001030B114484078C0F30011BB
:1012000048A0FFF707F84BA0FFF704F84E48017815
:101210004EA0FEF7FFFF5048017850A0FEF7FAFFFE
:101220005148017851A0FEF7F5FF5348017853A0CB
:10123000FEF7F0FF3FA0FEF7EDFF4FF4C870FFF799
:10124000E1FE20E700380140004400406800002033
:101250005053325F4C656674203D25640A000000DF
:101260005053325F446F776E3D25640A00000000E2
:101270005053325F52696768743D25640A0000006C
:101280005053325F55703D25640A00005053325F61
:101290005371756172653D25640A00005053325FD9
:1012A00043726F73733D25640A0000005053325F30
:1012B000436972636C653D25640A00005053325FD8
:1012C000547269676C653D25640A00005053325FB3
:1012D00052313D25640A00005053325F52323D25A1
:1012E000640A00005053325F52333D25640A000007
:1012F0005053325F4C313D25640A00005053325F39
:101300004C323D25640A00005053325F4C333D257A
:10131000640A00005053325F53656C6563743D2569
:10132000640A00005053325F53746172743D256447
:101330000A0000002D2D2D2D2D2D2D2D2D2D2D2D87
:101340002D2D2D2D0A0000000C0000205053325F7F
:1013500052583D25640A00000D0000205053325FB2
:1013600052593D25640A00000E0000205053325FA0
:101370004C583D25640A00000F0000205053325F96
:101380004C593D25640A0000F0B5DDE90545944E51
:101390003270944E3370944E3470944E357040F0E9
:1013A0007F067F2E07D1924E367826F00106761CF6
:1013B0008F4F3E7005E08E4E367826F001068C4F3A
:1013C0003E7040F0BF06BF2E07D1894E367826F01A
:1013D0000206B61C864F3E7005E0854E367826F034
:1013E0000206834F3E7040F0DF06DF2E07D1804EAD
:1013F000367826F00406361D7D4F3E7005E07C4EA3
:10140000367826F004067A4F3E7040F0EF06EF2E55
:1014100007D1774E367826F008060836744F3E70AE
:1014200005E0734E367826F00806714F3E7041F0A5
:101430007F067F2E07D16E4E367826F010061036C6
:101440006B4F3E7005E06A4E367826F01006684F06
:101450003E7041F0BF06BF2E07D1654E367826F0AC
:1014600020062036624F3E7005E0614E367826F049
:1014700020065F4F3E7041F0DF06DF2E07D15C4E45
:10148000367826F040064036594F3E7005E0584EFB
:10149000367826F04006564F3E7041F0EF06EF2EAC
:1014A00007D1534E367826F080068036504F3E7076
:1014B00005E04F4E367826F080064D4F3E7041F0E5
:1014C000F706F72E07D14A4E767826F00406361D29
:1014D000474F7E7005E0464E767826F00406444F6E
:1014E0007E7041F0FB06FB2E07D1414E767826F048
:1014F0000106761C3E4F7E7005E03D4E767826F064
:1015000001063B4F7E7041F0FD06FD2E07D1384E9F
:10151000767826F008060836354F7E7005E0344EA2
:10152000767826F00806324F7E7041F0FE06FE2ED9
:1015300007D12F4E767826F00206B61C2C4F7E700F
:1015400005E02B4E767826F00206294F7E7040F09B
:10155000F706F72E07D1264E767826F010061036BD
:10156000234F7E7005E0224E767826F01006204F3D
:101570007E7040F0FE06FE2E07D11D4E767826F0D6
:10158000200620361A4F7E7005E0194E767826F038
:101590002006174F7E7040F0FB06FB2E07D1144E3D
:1015A000767826F080068036114F7E7005E0104E6A
:1015B000767826F080060E4F7E7040F0FD06FD2EF8
:1015C00007D10B4E767826F040064036084F7E70E5
:1015D00005E0074E767826F04006054F7E70F0BD98
:1015E0000C0000200D0000200E0000200F00002045
:1015F0006800002014160008000000206C000000A5
:101600006C010008801600086C000020C406000071
:101610008801000800000000000000000000000039
:101620000000000000A24A040000000000000000CA
:101630000102030406070809000000000000000082
:101640006C00002020000000000000008C00002042
:101650002000000000000000AC000020200000007E
:101660000000000000000000000000000102030470
:10167000010203040607080902040608000000002E
:0400000508000131BD
:00000001FF
